{
  "_format": "hh-sol-artifact-1",
  "contractName": "supplychainall",
  "sourceName": "contracts/supplychain.sol",
  "abi": [
    {
      "inputs": [],
      "stateMutability": "nonpayable",
      "type": "constructor"
    },
    {
      "anonymous": false,
      "inputs": [
        {
          "indexed": false,
          "internalType": "uint256",
          "name": "productCode",
          "type": "uint256"
        }
      ],
      "name": "ForSaleByDistributor",
      "type": "event"
    },
    {
      "anonymous": false,
      "inputs": [
        {
          "indexed": false,
          "internalType": "uint256",
          "name": "productCode",
          "type": "uint256"
        }
      ],
      "name": "ForSaleByRetailer",
      "type": "event"
    },
    {
      "anonymous": false,
      "inputs": [
        {
          "indexed": false,
          "internalType": "uint256",
          "name": "productCode",
          "type": "uint256"
        }
      ],
      "name": "ProduceByManufacturer",
      "type": "event"
    },
    {
      "anonymous": false,
      "inputs": [
        {
          "indexed": false,
          "internalType": "uint256",
          "name": "productCode",
          "type": "uint256"
        }
      ],
      "name": "PurchasedByConsumer",
      "type": "event"
    },
    {
      "anonymous": false,
      "inputs": [
        {
          "indexed": false,
          "internalType": "uint256",
          "name": "productCode",
          "type": "uint256"
        }
      ],
      "name": "PurchasedByRetailer",
      "type": "event"
    },
    {
      "anonymous": false,
      "inputs": [
        {
          "indexed": false,
          "internalType": "uint256",
          "name": "productCode",
          "type": "uint256"
        }
      ],
      "name": "ReceivedByDistributor",
      "type": "event"
    },
    {
      "anonymous": false,
      "inputs": [
        {
          "indexed": false,
          "internalType": "uint256",
          "name": "productCode",
          "type": "uint256"
        }
      ],
      "name": "ReceivedByRetailer",
      "type": "event"
    },
    {
      "anonymous": false,
      "inputs": [
        {
          "indexed": false,
          "internalType": "uint256",
          "name": "productCode",
          "type": "uint256"
        }
      ],
      "name": "ShippedByDistributor",
      "type": "event"
    },
    {
      "anonymous": false,
      "inputs": [
        {
          "indexed": false,
          "internalType": "uint256",
          "name": "productCode",
          "type": "uint256"
        }
      ],
      "name": "ShippedByManufacturer",
      "type": "event"
    },
    {
      "anonymous": false,
      "inputs": [
        {
          "indexed": false,
          "internalType": "uint256",
          "name": "productCode",
          "type": "uint256"
        }
      ],
      "name": "forSaleByManufacturer",
      "type": "event"
    },
    {
      "anonymous": false,
      "inputs": [
        {
          "indexed": false,
          "internalType": "uint256",
          "name": "productCode",
          "type": "uint256"
        }
      ],
      "name": "purchasedByDistributor",
      "type": "event"
    },
    {
      "inputs": [
        {
          "internalType": "address",
          "name": "_consumerAddress",
          "type": "address"
        },
        {
          "internalType": "string",
          "name": "_name",
          "type": "string"
        },
        {
          "internalType": "string",
          "name": "_livingAddress",
          "type": "string"
        },
        {
          "internalType": "uint256",
          "name": "_postalCode",
          "type": "uint256"
        }
      ],
      "name": "addConsumer",
      "outputs": [],
      "stateMutability": "nonpayable",
      "type": "function"
    },
    {
      "inputs": [
        {
          "internalType": "address",
          "name": "_user",
          "type": "address"
        },
        {
          "internalType": "string",
          "name": "_name",
          "type": "string"
        }
      ],
      "name": "addDistributor",
      "outputs": [],
      "stateMutability": "nonpayable",
      "type": "function"
    },
    {
      "inputs": [
        {
          "internalType": "address",
          "name": "_user",
          "type": "address"
        },
        {
          "internalType": "string",
          "name": "_name",
          "type": "string"
        }
      ],
      "name": "addManufacturer",
      "outputs": [],
      "stateMutability": "nonpayable",
      "type": "function"
    },
    {
      "inputs": [
        {
          "internalType": "address",
          "name": "_user",
          "type": "address"
        },
        {
          "internalType": "string",
          "name": "_name",
          "type": "string"
        }
      ],
      "name": "addRetailer",
      "outputs": [],
      "stateMutability": "nonpayable",
      "type": "function"
    },
    {
      "inputs": [
        {
          "internalType": "uint256",
          "name": "_productCode",
          "type": "uint256"
        },
        {
          "internalType": "uint256",
          "name": "_price",
          "type": "uint256"
        }
      ],
      "name": "buyItemByConsumer",
      "outputs": [],
      "stateMutability": "nonpayable",
      "type": "function"
    },
    {
      "inputs": [
        {
          "internalType": "uint256",
          "name": "_productCode",
          "type": "uint256"
        }
      ],
      "name": "fetchItemtwo",
      "outputs": [
        {
          "internalType": "uint256",
          "name": "itemstockUnit",
          "type": "uint256"
        },
        {
          "internalType": "uint256",
          "name": "itemproductcode",
          "type": "uint256"
        },
        {
          "internalType": "uint256",
          "name": "productID",
          "type": "uint256"
        },
        {
          "internalType": "string",
          "name": "productNotes",
          "type": "string"
        },
        {
          "internalType": "uint256",
          "name": "productPrice",
          "type": "uint256"
        },
        {
          "internalType": "uint256",
          "name": "productDate",
          "type": "uint256"
        },
        {
          "internalType": "enum supplychainall.State",
          "name": "itemState",
          "type": "uint8"
        },
        {
          "internalType": "address",
          "name": "distributorID",
          "type": "address"
        },
        {
          "internalType": "address",
          "name": "retailerID",
          "type": "address"
        },
        {
          "internalType": "address",
          "name": "consumerID",
          "type": "address"
        },
        {
          "internalType": "string",
          "name": "manufacturerName",
          "type": "string"
        },
        {
          "internalType": "string",
          "name": "manufacturerInformation",
          "type": "string"
        }
      ],
      "stateMutability": "view",
      "type": "function"
    },
    {
      "inputs": [
        {
          "internalType": "uint256",
          "name": "_productCode",
          "type": "uint256"
        }
      ],
      "name": "fetchitemHistory",
      "outputs": [
        {
          "internalType": "uint256",
          "name": "blockManufacutrerToDistributor",
          "type": "uint256"
        },
        {
          "internalType": "uint256",
          "name": "blockDistributorToRetailer",
          "type": "uint256"
        },
        {
          "internalType": "uint256",
          "name": "blockRetailerToConsumer",
          "type": "uint256"
        }
      ],
      "stateMutability": "view",
      "type": "function"
    },
    {
      "inputs": [],
      "name": "getAllConsumers",
      "outputs": [
        {
          "internalType": "address[]",
          "name": "",
          "type": "address[]"
        }
      ],
      "stateMutability": "view",
      "type": "function"
    },
    {
      "inputs": [
        {
          "internalType": "address",
          "name": "_consumerAddress",
          "type": "address"
        }
      ],
      "name": "getConsumer",
      "outputs": [
        {
          "internalType": "string",
          "name": "",
          "type": "string"
        },
        {
          "internalType": "string",
          "name": "",
          "type": "string"
        },
        {
          "internalType": "uint256",
          "name": "",
          "type": "uint256"
        }
      ],
      "stateMutability": "view",
      "type": "function"
    },
    {
      "inputs": [
        {
          "internalType": "address",
          "name": "_manufacturer",
          "type": "address"
        }
      ],
      "name": "getDistributorName",
      "outputs": [
        {
          "internalType": "string",
          "name": "",
          "type": "string"
        }
      ],
      "stateMutability": "view",
      "type": "function"
    },
    {
      "inputs": [
        {
          "internalType": "address",
          "name": "_user",
          "type": "address"
        }
      ],
      "name": "getDistributors",
      "outputs": [
        {
          "internalType": "string[]",
          "name": "",
          "type": "string[]"
        }
      ],
      "stateMutability": "view",
      "type": "function"
    },
    {
      "inputs": [
        {
          "internalType": "address",
          "name": "_manufacturer",
          "type": "address"
        }
      ],
      "name": "getManufacturerName",
      "outputs": [
        {
          "internalType": "string",
          "name": "",
          "type": "string"
        }
      ],
      "stateMutability": "view",
      "type": "function"
    },
    {
      "inputs": [
        {
          "internalType": "address",
          "name": "_user",
          "type": "address"
        }
      ],
      "name": "getManufacturers",
      "outputs": [
        {
          "internalType": "string[]",
          "name": "",
          "type": "string[]"
        }
      ],
      "stateMutability": "view",
      "type": "function"
    },
    {
      "inputs": [
        {
          "internalType": "address",
          "name": "_manufacturer",
          "type": "address"
        }
      ],
      "name": "getRetailerName",
      "outputs": [
        {
          "internalType": "string",
          "name": "",
          "type": "string"
        }
      ],
      "stateMutability": "view",
      "type": "function"
    },
    {
      "inputs": [
        {
          "internalType": "address",
          "name": "_user",
          "type": "address"
        }
      ],
      "name": "getRetailers",
      "outputs": [
        {
          "internalType": "string[]",
          "name": "",
          "type": "string[]"
        }
      ],
      "stateMutability": "view",
      "type": "function"
    },
    {
      "inputs": [
        {
          "internalType": "address",
          "name": "_account",
          "type": "address"
        }
      ],
      "name": "isDistributor",
      "outputs": [
        {
          "internalType": "bool",
          "name": "",
          "type": "bool"
        }
      ],
      "stateMutability": "view",
      "type": "function"
    },
    {
      "inputs": [
        {
          "internalType": "address",
          "name": "_manufacturer",
          "type": "address"
        },
        {
          "internalType": "string",
          "name": "_name",
          "type": "string"
        }
      ],
      "name": "isDistributorNameRegistered",
      "outputs": [
        {
          "internalType": "bool",
          "name": "",
          "type": "bool"
        }
      ],
      "stateMutability": "view",
      "type": "function"
    },
    {
      "inputs": [
        {
          "internalType": "address",
          "name": "_account",
          "type": "address"
        }
      ],
      "name": "isManufacturer",
      "outputs": [
        {
          "internalType": "bool",
          "name": "",
          "type": "bool"
        }
      ],
      "stateMutability": "view",
      "type": "function"
    },
    {
      "inputs": [
        {
          "internalType": "address",
          "name": "_manufacturer",
          "type": "address"
        },
        {
          "internalType": "string",
          "name": "_name",
          "type": "string"
        }
      ],
      "name": "isManufacturerNameRegistered",
      "outputs": [
        {
          "internalType": "bool",
          "name": "",
          "type": "bool"
        }
      ],
      "stateMutability": "view",
      "type": "function"
    },
    {
      "inputs": [
        {
          "internalType": "address",
          "name": "_account",
          "type": "address"
        }
      ],
      "name": "isRetailer",
      "outputs": [
        {
          "internalType": "bool",
          "name": "",
          "type": "bool"
        }
      ],
      "stateMutability": "view",
      "type": "function"
    },
    {
      "inputs": [
        {
          "internalType": "address",
          "name": "_manufacturer",
          "type": "address"
        },
        {
          "internalType": "string",
          "name": "_name",
          "type": "string"
        }
      ],
      "name": "isRetailerNameRegistered",
      "outputs": [
        {
          "internalType": "bool",
          "name": "",
          "type": "bool"
        }
      ],
      "stateMutability": "view",
      "type": "function"
    },
    {
      "inputs": [
        {
          "internalType": "uint256",
          "name": "_stockUnit",
          "type": "uint256"
        },
        {
          "internalType": "uint256",
          "name": "_productCode",
          "type": "uint256"
        },
        {
          "internalType": "string",
          "name": "_manufacturerName",
          "type": "string"
        },
        {
          "internalType": "string",
          "name": "_manufacturerInformation",
          "type": "string"
        },
        {
          "internalType": "string",
          "name": "_productNotes",
          "type": "string"
        },
        {
          "internalType": "uint256",
          "name": "_price",
          "type": "uint256"
        }
      ],
      "name": "produceItemByManufacturer",
      "outputs": [],
      "stateMutability": "nonpayable",
      "type": "function"
    },
    {
      "inputs": [
        {
          "internalType": "uint256",
          "name": "",
          "type": "uint256"
        }
      ],
      "name": "productExists",
      "outputs": [
        {
          "internalType": "bool",
          "name": "",
          "type": "bool"
        }
      ],
      "stateMutability": "view",
      "type": "function"
    },
    {
      "inputs": [
        {
          "internalType": "uint256",
          "name": "_productCode",
          "type": "uint256"
        },
        {
          "internalType": "uint256",
          "name": "_price",
          "type": "uint256"
        },
        {
          "internalType": "uint256",
          "name": "_quantity",
          "type": "uint256"
        }
      ],
      "name": "purchaseItemByDistributor",
      "outputs": [],
      "stateMutability": "nonpayable",
      "type": "function"
    },
    {
      "inputs": [
        {
          "internalType": "uint256",
          "name": "_productCode",
          "type": "uint256"
        },
        {
          "internalType": "uint256",
          "name": "_quantity",
          "type": "uint256"
        },
        {
          "internalType": "uint256",
          "name": "_price",
          "type": "uint256"
        }
      ],
      "name": "purchaseItemByRetailer",
      "outputs": [],
      "stateMutability": "nonpayable",
      "type": "function"
    },
    {
      "inputs": [
        {
          "internalType": "uint256",
          "name": "_productCode",
          "type": "uint256"
        },
        {
          "internalType": "uint256",
          "name": "_quantity",
          "type": "uint256"
        }
      ],
      "name": "receivedItemByDistributor",
      "outputs": [],
      "stateMutability": "nonpayable",
      "type": "function"
    },
    {
      "inputs": [
        {
          "internalType": "uint256",
          "name": "_productCode",
          "type": "uint256"
        }
      ],
      "name": "receivedItemByRetailer",
      "outputs": [],
      "stateMutability": "nonpayable",
      "type": "function"
    },
    {
      "inputs": [
        {
          "internalType": "string",
          "name": "_name",
          "type": "string"
        }
      ],
      "name": "registerDistributorName",
      "outputs": [],
      "stateMutability": "nonpayable",
      "type": "function"
    },
    {
      "inputs": [
        {
          "internalType": "string",
          "name": "_name",
          "type": "string"
        }
      ],
      "name": "registerManufacturerName",
      "outputs": [],
      "stateMutability": "nonpayable",
      "type": "function"
    },
    {
      "inputs": [
        {
          "internalType": "string",
          "name": "_name",
          "type": "string"
        }
      ],
      "name": "registerRetailerName",
      "outputs": [],
      "stateMutability": "nonpayable",
      "type": "function"
    },
    {
      "inputs": [
        {
          "internalType": "address",
          "name": "_consumerAddress",
          "type": "address"
        }
      ],
      "name": "removeConsumer",
      "outputs": [],
      "stateMutability": "nonpayable",
      "type": "function"
    },
    {
      "inputs": [
        {
          "internalType": "uint256",
          "name": "_productCode",
          "type": "uint256"
        },
        {
          "internalType": "uint256",
          "name": "_price",
          "type": "uint256"
        }
      ],
      "name": "sellItemByDistributor",
      "outputs": [],
      "stateMutability": "nonpayable",
      "type": "function"
    },
    {
      "inputs": [
        {
          "internalType": "uint256",
          "name": "_productCode",
          "type": "uint256"
        },
        {
          "internalType": "uint256",
          "name": "_price",
          "type": "uint256"
        }
      ],
      "name": "sellItemByManufacturer",
      "outputs": [],
      "stateMutability": "nonpayable",
      "type": "function"
    },
    {
      "inputs": [
        {
          "internalType": "uint256",
          "name": "_productCode",
          "type": "uint256"
        },
        {
          "internalType": "uint256",
          "name": "_price",
          "type": "uint256"
        }
      ],
      "name": "sellItemByRetailer",
      "outputs": [],
      "stateMutability": "nonpayable",
      "type": "function"
    },
    {
      "inputs": [
        {
          "internalType": "string",
          "name": "_name",
          "type": "string"
        }
      ],
      "name": "setDistributorName",
      "outputs": [],
      "stateMutability": "nonpayable",
      "type": "function"
    },
    {
      "inputs": [
        {
          "internalType": "string",
          "name": "_name",
          "type": "string"
        }
      ],
      "name": "setManufacturerName",
      "outputs": [],
      "stateMutability": "nonpayable",
      "type": "function"
    },
    {
      "inputs": [
        {
          "internalType": "string",
          "name": "_name",
          "type": "string"
        }
      ],
      "name": "setRetailerName",
      "outputs": [],
      "stateMutability": "nonpayable",
      "type": "function"
    },
    {
      "inputs": [
        {
          "internalType": "uint256",
          "name": "_productCode",
          "type": "uint256"
        }
      ],
      "name": "shippedItemByDistributor",
      "outputs": [],
      "stateMutability": "nonpayable",
      "type": "function"
    },
    {
      "inputs": [
        {
          "internalType": "uint256",
          "name": "_productCode",
          "type": "uint256"
        },
        {
          "internalType": "uint256",
          "name": "_quantity",
          "type": "uint256"
        }
      ],
      "name": "shippedItemByManufacturer",
      "outputs": [],
      "stateMutability": "nonpayable",
      "type": "function"
    }
  ],
  "bytecode": "0x608060405234801561001057600080fd5b5033600b60006101000a81548173ffffffffffffffffffffffffffffffffffffffff021916908373ffffffffffffffffffffffffffffffffffffffff160217905550615efb80620000626000396000f3fe608060405234801561001057600080fd5b506004361061023d5760003560e01c80636b6c4b761161013b5780638f0c86fa116100b8578063a7457f741161007c578063a7457f74146106fb578063af55ed641461072b578063df3065311461075b578063ee3cf0b81461078b578063f49f4f3e146107a75761023d565b80638f0c86fa14610626578063982b39b414610656578063993084e8146106725780639e548071146106a4578063a0562e19146106c05761023d565b8063808d9f00116100ff578063808d9f001461059a57806382e831ec146105b65780638a8e0a2e146105d25780638adff8ba146105ee5780638d70885e1461060a5761023d565b80636b6c4b76146104e65780637056bd741461050257806375c6da231461053257806377795a541461054e57806377f3312b1461057e5761023d565b8063364dfb74116101c95780634de122591161018d5780634de122591461041e578063535a0b3a1461044e578063546eb5861461046a578063568fa58c146104865780635da09b88146104b65761023d565b8063364dfb741461037c57806337b2f92c1461039a57806338400b1f146103b6578063384e01d1146103d257806338d8e13c146104025761023d565b80632ccf410d116102105780632ccf410d146102dc5780632dc25e72146102f85780632fe6925114610328578063322a4dee14610344578063364603be146103605761023d565b80630e27e3df146102425780631154501c1461025e5780631214d2fd1461029057806317d4a491146102ac575b600080fd5b61025c600480360381019061025791906143c1565b6107d7565b005b61027860048036038101906102739190614424565b610a74565b60405161028793929190614460565b60405180910390f35b6102aa60048036038101906102a591906145dd565b610ad5565b005b6102c660048036038101906102c191906143c1565b610b4b565b6040516102d39190614654565b60405180910390f35b6102f660048036038101906102f1919061466f565b610c8b565b005b610312600480360381019061030d91906145dd565b6112ca565b60405161031f9190614654565b60405180910390f35b610342600480360381019061033d9190614750565b61133d565b005b61035e60048036038101906103599190614750565b61138d565b005b61037a60048036038101906103759190614799565b611404565b005b6103846116b1565b60405161039191906148aa565b60405180910390f35b6103b460048036038101906103af9190614424565b61173f565b005b6103d060048036038101906103cb9190614750565b61192e565b005b6103ec60048036038101906103e791906143c1565b6119a4565b6040516103f99190614a0d565b60405180910390f35b61041c60048036038101906104179190614a2f565b611abc565b005b610438600480360381019061043391906143c1565b611d6c565b6040516104459190614ab9565b60405180910390f35b61046860048036038101906104639190614a2f565b611e3d565b005b610484600480360381019061047f9190614a2f565b612086565b005b6104a0600480360381019061049b91906143c1565b612291565b6040516104ad9190614ab9565b60405180910390f35b6104d060048036038101906104cb91906143c1565b612362565b6040516104dd9190614654565b60405180910390f35b61050060048036038101906104fb9190614a2f565b6124a4565b005b61051c600480360381019061051791906143c1565b61271a565b6040516105299190614ab9565b60405180910390f35b61054c600480360381019061054791906145dd565b6127eb565b005b610568600480360381019061056391906145dd565b612861565b6040516105759190614654565b60405180910390f35b61059860048036038101906105939190614a2f565b6128d4565b005b6105b460048036038101906105af9190614adb565b612be8565b005b6105d060048036038101906105cb9190614424565b612d9d565b005b6105ec60048036038101906105e791906145dd565b612f8c565b005b61060860048036038101906106039190614a2f565b613001565b005b610624600480360381019061061f9190614750565b61320c565b005b610640600480360381019061063b91906143c1565b61325c565b60405161064d9190614654565b60405180910390f35b610670600480360381019061066b9190614750565b61339e565b005b61068c600480360381019061068791906143c1565b6133ee565b60405161069b93929190614b7a565b60405180910390f35b6106be60048036038101906106b99190614750565b61366e565b005b6106da60048036038101906106d59190614424565b6136e5565b6040516106f29c9b9a99989796959493929190614c45565b60405180910390f35b610715600480360381019061071091906145dd565b613b56565b6040516107229190614654565b60405180910390f35b61074560048036038101906107409190614424565b613bc9565b6040516107529190614654565b60405180910390f35b610775600480360381019061077091906143c1565b613be9565b6040516107829190614a0d565b60405180910390f35b6107a560048036038101906107a09190614799565b613d01565b005b6107c160048036038101906107bc91906143c1565b6140cb565b6040516107ce9190614a0d565b60405180910390f35b600960008273ffffffffffffffffffffffffffffffffffffffff1673ffffffffffffffffffffffffffffffffffffffff16815260200190815260200160002060030160009054906101000a900460ff16610866576040517f08c379a000000000000000000000000000000000000000000000000000000000815260040161085d90614d60565b60405180910390fd5b600960008273ffffffffffffffffffffffffffffffffffffffff1673ffffffffffffffffffffffffffffffffffffffff168152602001908152602001600020600080820160006108b691906141e2565b6001820160006108c691906141e2565b60028201600090556003820160006101000a81549060ff0219169055505060005b600a80549050811015610a70578173ffffffffffffffffffffffffffffffffffffffff16600a828154811061091f5761091e614d80565b5b9060005260206000200160009054906101000a900473ffffffffffffffffffffffffffffffffffffffff1673ffffffffffffffffffffffffffffffffffffffff1603610a5d57600a6001600a805490506109799190614dde565b8154811061098a57610989614d80565b5b9060005260206000200160009054906101000a900473ffffffffffffffffffffffffffffffffffffffff16600a82815481106109c9576109c8614d80565b5b9060005260206000200160006101000a81548173ffffffffffffffffffffffffffffffffffffffff021916908373ffffffffffffffffffffffffffffffffffffffff160217905550600a805480610a2357610a22614e12565b5b6001900381819060005260206000200160006101000a81549073ffffffffffffffffffffffffffffffffffffffff02191690559055610a70565b8080610a6890614e41565b9150506108e7565b5050565b600080600080600f600086815260200190815260200160002060405180606001604052908160008201548152602001600182015481526020016002820154815250509050806000015181602001518260400151935093509350509193909250565b600360008373ffffffffffffffffffffffffffffffffffffffff1673ffffffffffffffffffffffffffffffffffffffff16815260200190815260200160002081908060018154018082558091505060019003906000526020600020016000909190919091509081610b469190615095565b505050565b600080600090505b6000808473ffffffffffffffffffffffffffffffffffffffff1673ffffffffffffffffffffffffffffffffffffffff16815260200190815260200160002080549050811015610c8057600160008473ffffffffffffffffffffffffffffffffffffffff1673ffffffffffffffffffffffffffffffffffffffff1681526020019081526020016000206000808573ffffffffffffffffffffffffffffffffffffffff1673ffffffffffffffffffffffffffffffffffffffff1681526020019081526020016000208281548110610c2b57610c2a614d80565b5b90600052602060002001604051610c4291906151f5565b908152602001604051809103902060009054906101000a900460ff1615610c6d576001915050610c86565b8080610c7890614e41565b915050610b53565b50600090505b919050565b83610c9533610b4b565b610cd4576040517f08c379a0000000000000000000000000000000000000000000000000000000008152600401610ccb90615258565b60405180910390fd5b610cde3382613b56565b610d1d576040517f08c379a0000000000000000000000000000000000000000000000000000000008152600401610d14906152c4565b60405180910390fd5b6010600087815260200190815260200160002060009054906101000a900460ff1615610d7e576040517f08c379a0000000000000000000000000000000000000000000000000000000008152600401610d7590615330565b60405180910390fd5b60008711610dc1576040517f08c379a0000000000000000000000000000000000000000000000000000000008152600401610db89061539c565b60405180910390fd5b6000806000610dce614222565b878160a001819052508a81600001818152505089816020018181525050888160800181905250868160e0018190525033816060019073ffffffffffffffffffffffffffffffffffffffff16908173ffffffffffffffffffffffffffffffffffffffff168152505033816040019073ffffffffffffffffffffffffffffffffffffffff16908173ffffffffffffffffffffffffffffffffffffffff1681525050600d548a610e7b91906153bc565b8160c0018181525050868160e00181905250858161012001818152505042816101000181815250506000816101400190600a811115610ebd57610ebc614bbf565b5b9081600a811115610ed157610ed0614bbf565b5b815250508381610160019073ffffffffffffffffffffffffffffffffffffffff16908173ffffffffffffffffffffffffffffffffffffffff16815250508281610180019073ffffffffffffffffffffffffffffffffffffffff16908173ffffffffffffffffffffffffffffffffffffffff168152505081816101a0019073ffffffffffffffffffffffffffffffffffffffff16908173ffffffffffffffffffffffffffffffffffffffff168152505080600e60008c8152602001908152602001600020600082015181600001556020820151816001015560408201518160020160006101000a81548173ffffffffffffffffffffffffffffffffffffffff021916908373ffffffffffffffffffffffffffffffffffffffff16021790555060608201518160030160006101000a81548173ffffffffffffffffffffffffffffffffffffffff021916908373ffffffffffffffffffffffffffffffffffffffff160217905550608082015181600401908161104b9190615095565b5060a08201518160050190816110619190615095565b5060c0820151816006015560e08201518160070190816110819190615095565b506101008201518160080155610120820151816009015561014082015181600a0160006101000a81548160ff0219169083600a8111156110c4576110c3614bbf565b5b021790555061016082015181600a0160016101000a81548173ffffffffffffffffffffffffffffffffffffffff021916908373ffffffffffffffffffffffffffffffffffffffff16021790555061018082015181600b0160006101000a81548173ffffffffffffffffffffffffffffffffffffffff021916908373ffffffffffffffffffffffffffffffffffffffff1602179055506101a082015181600c0160006101000a81548173ffffffffffffffffffffffffffffffffffffffff021916908373ffffffffffffffffffffffffffffffffffffffff16021790555090505060006111ae614311565b81816000018181525050818160200181815250508181604001818152505080600f60008e81526020019081526020016000206000820151816000015560208201518160010155604082015181600201559050506001601060008e815260200190815260200160002060006101000a81548160ff0219169083151502179055508c601160008e8152602001908152602001600020819055506000600e60008e8152602001908152602001600020600a0160006101000a81548160ff0219169083600a81111561127f5761127e614bbf565b5b02179055507f450f0ca4d112999acf0af70e42b45b5e285434a386833a43e0cc3ce5279cfd0a8c6040516112b391906153f0565b60405180910390a150505050505050505050505050565b6000600760008473ffffffffffffffffffffffffffffffffffffffff1673ffffffffffffffffffffffffffffffffffffffff16815260200190815260200160002082604051611319919061543c565b908152602001604051809103902060009054906101000a900460ff16905092915050565b80600860003373ffffffffffffffffffffffffffffffffffffffff1673ffffffffffffffffffffffffffffffffffffffff16815260200190815260200160002090816113899190615095565b5050565b6001600760003373ffffffffffffffffffffffffffffffffffffffff1673ffffffffffffffffffffffffffffffffffffffff168152602001908152602001600020826040516113dc919061543c565b908152602001604051809103902060006101000a81548160ff02191690831515021790555050565b61140d33612362565b61144c576040517f08c379a0000000000000000000000000000000000000000000000000000000008152600401611443906154c5565b60405180910390fd5b6005600a8111156114605761145f614bbf565b5b600e6000858152602001908152602001600020600a0160009054906101000a900460ff16600a81111561149657611495614bbf565b5b146114d6576040517f08c379a00000000000000000000000000000000000000000000000000000000081526004016114cd90615531565b60405180910390fd5b80600e6000858152602001908152602001600020600901541461152e576040517f08c379a00000000000000000000000000000000000000000000000000000000081526004016115259061559d565b60405180910390fd5b60008211611571576040517f08c379a000000000000000000000000000000000000000000000000000000000815260040161156890615609565b60405180910390fd5b33600e600085815260200190815260200160002060020160006101000a81548173ffffffffffffffffffffffffffffffffffffffff021916908373ffffffffffffffffffffffffffffffffffffffff16021790555033600e6000858152602001908152602001600020600b0160006101000a81548173ffffffffffffffffffffffffffffffffffffffff021916908373ffffffffffffffffffffffffffffffffffffffff1602179055506006600e6000858152602001908152602001600020600a0160006101000a81548160ff0219169083600a81111561165557611654614bbf565b5b021790555043600f6000858152602001908152602001600020600101819055507faa7352d10146444c3afd9bd7fb0ae56b0a85e81139536bbec3f1f660fddd7be1836040516116a491906153f0565b60405180910390a1505050565b6060600a80548060200260200160405190810160405280929190818152602001828054801561173557602002820191906000526020600020905b8160009054906101000a900473ffffffffffffffffffffffffffffffffffffffff1673ffffffffffffffffffffffffffffffffffffffff16815260200190600101908083116116eb575b5050505050905090565b61174833612362565b611787576040517f08c379a000000000000000000000000000000000000000000000000000000000815260040161177e906154c5565b60405180910390fd5b6007600a81111561179b5761179a614bbf565b5b600e6000838152602001908152602001600020600a0160009054906101000a900460ff16600a8111156117d1576117d0614bbf565b5b14611811576040517f08c379a000000000000000000000000000000000000000000000000000000000815260040161180890615675565b60405180910390fd5b3373ffffffffffffffffffffffffffffffffffffffff16600e6000838152602001908152602001600020600b0160009054906101000a900473ffffffffffffffffffffffffffffffffffffffff1673ffffffffffffffffffffffffffffffffffffffff16146118b5576040517f08c379a00000000000000000000000000000000000000000000000000000000081526004016118ac906156e1565b60405180910390fd5b6008600e6000838152602001908152602001600020600a0160006101000a81548160ff0219169083600a8111156118ef576118ee614bbf565b5b02179055507f322f34e90f2269750b3e28178631d975cc678db36f21098fe548b7f755ce0bd08160405161192391906153f0565b60405180910390a150565b60018060003373ffffffffffffffffffffffffffffffffffffffff1673ffffffffffffffffffffffffffffffffffffffff1681526020019081526020016000208260405161197c919061543c565b908152602001604051809103902060006101000a81548160ff02191690831515021790555050565b6060600360008373ffffffffffffffffffffffffffffffffffffffff1673ffffffffffffffffffffffffffffffffffffffff168152602001908152602001600020805480602002602001604051908101604052809291908181526020016000905b82821015611ab1578382906000526020600020018054611a2490614eb8565b80601f0160208091040260200160405190810160405280929190818152602001828054611a5090614eb8565b8015611a9d5780601f10611a7257610100808354040283529160200191611a9d565b820191906000526020600020905b815481529060010190602001808311611a8057829003601f168201915b505050505081526020019060010190611a05565b505050509050919050565b600960003373ffffffffffffffffffffffffffffffffffffffff1673ffffffffffffffffffffffffffffffffffffffff16815260200190815260200160002060030160009054906101000a900460ff16611b4b576040517f08c379a0000000000000000000000000000000000000000000000000000000008152600401611b429061574d565b60405180910390fd5b6009600a811115611b5f57611b5e614bbf565b5b600e6000848152602001908152602001600020600a0160009054906101000a900460ff16600a811115611b9557611b94614bbf565b5b14611bd5576040517f08c379a0000000000000000000000000000000000000000000000000000000008152600401611bcc90615531565b60405180910390fd5b80600e60008481526020019081526020016000206009015414611c2d576040517f08c379a0000000000000000000000000000000000000000000000000000000008152600401611c249061559d565b60405180910390fd5b33600e6000848152602001908152602001600020600c0160006101000a81548173ffffffffffffffffffffffffffffffffffffffff021916908373ffffffffffffffffffffffffffffffffffffffff16021790555033600e600084815260200190815260200160002060020160006101000a81548173ffffffffffffffffffffffffffffffffffffffff021916908373ffffffffffffffffffffffffffffffffffffffff160217905550600a600e6000848152602001908152602001600020600a0160006101000a81548160ff0219169083600a811115611d1157611d10614bbf565b5b021790555043600f6000848152602001908152602001600020600201819055507fc7e94446a942a0541d0224ece380a730c85f03db7188fca783225da9255929f782604051611d6091906153f0565b60405180910390a15050565b6060600260008373ffffffffffffffffffffffffffffffffffffffff1673ffffffffffffffffffffffffffffffffffffffff1681526020019081526020016000208054611db890614eb8565b80601f0160208091040260200160405190810160405280929190818152602001828054611de490614eb8565b8015611e315780601f10611e0657610100808354040283529160200191611e31565b820191906000526020600020905b815481529060010190602001808311611e1457829003601f168201915b50505050509050919050565b611e4633610b4b565b611e85576040517f08c379a0000000000000000000000000000000000000000000000000000000008152600401611e7c906157df565b60405180910390fd5b6002600a811115611e9957611e98614bbf565b5b600e6000848152602001908152602001600020600a0160009054906101000a900460ff16600a811115611ecf57611ece614bbf565b5b14611f0f576040517f08c379a0000000000000000000000000000000000000000000000000000000008152600401611f0690615871565b60405180910390fd5b80600e6000848152602001908152602001600020600001541015611f68576040517f08c379a0000000000000000000000000000000000000000000000000000000008152600401611f5f906158dd565b60405180910390fd5b3373ffffffffffffffffffffffffffffffffffffffff16600e600084815260200190815260200160002060030160009054906101000a900473ffffffffffffffffffffffffffffffffffffffff1673ffffffffffffffffffffffffffffffffffffffff161461200c576040517f08c379a0000000000000000000000000000000000000000000000000000000008152600401612003906156e1565b60405180910390fd5b6003600e6000848152602001908152602001600020600a0160006101000a81548160ff0219169083600a81111561204657612045614bbf565b5b02179055507f25727bef8a186dd95a062151451f2d651551b53124c18208d7653b1217ae31ba8260405161207a91906153f0565b60405180910390a15050565b61208f33612362565b6120ce576040517f08c379a00000000000000000000000000000000000000000000000000000000081526004016120c5906154c5565b60405180910390fd5b6008600a8111156120e2576120e1614bbf565b5b600e6000848152602001908152602001600020600a0160009054906101000a900460ff16600a81111561211857612117614bbf565b5b14612158576040517f08c379a000000000000000000000000000000000000000000000000000000000815260040161214f90615949565b60405180910390fd5b3373ffffffffffffffffffffffffffffffffffffffff16600e6000848152602001908152602001600020600b0160009054906101000a900473ffffffffffffffffffffffffffffffffffffffff1673ffffffffffffffffffffffffffffffffffffffff16146121fc576040517f08c379a00000000000000000000000000000000000000000000000000000000081526004016121f3906156e1565b60405180910390fd5b6009600e6000848152602001908152602001600020600a0160006101000a81548160ff0219169083600a81111561223657612235614bbf565b5b021790555080600e6000848152602001908152602001600020600901819055507f59e7ad085805e2b02ad4b0f8033bd75e7ee4c8cd43f996267463585e358962528260405161228591906153f0565b60405180910390a15050565b6060600860008373ffffffffffffffffffffffffffffffffffffffff1673ffffffffffffffffffffffffffffffffffffffff16815260200190815260200160002080546122dd90614eb8565b80601f016020809104026020016040519081016040528092919081815260200182805461230990614eb8565b80156123565780601f1061232b57610100808354040283529160200191612356565b820191906000526020600020905b81548152906001019060200180831161233957829003601f168201915b50505050509050919050565b600080600090505b600660008473ffffffffffffffffffffffffffffffffffffffff1673ffffffffffffffffffffffffffffffffffffffff1681526020019081526020016000208054905081101561249957600760008473ffffffffffffffffffffffffffffffffffffffff1673ffffffffffffffffffffffffffffffffffffffff168152602001908152602001600020600660008573ffffffffffffffffffffffffffffffffffffffff1673ffffffffffffffffffffffffffffffffffffffff168152602001908152602001600020828154811061244457612443614d80565b5b9060005260206000200160405161245b91906151f5565b908152602001604051809103902060009054906101000a900460ff161561248657600191505061249f565b808061249190614e41565b91505061236a565b50600090505b919050565b6124ad3361325c565b6124ec576040517f08c379a00000000000000000000000000000000000000000000000000000000081526004016124e3906159db565b60405180910390fd5b6003600a811115612500576124ff614bbf565b5b600e6000848152602001908152602001600020600a0160009054906101000a900460ff16600a81111561253657612535614bbf565b5b14612576576040517f08c379a000000000000000000000000000000000000000000000000000000000815260040161256d90615a47565b60405180910390fd5b80600e60008481526020019081526020016000206000015410156125cf576040517f08c379a00000000000000000000000000000000000000000000000000000000081526004016125c690615ad9565b60405180910390fd5b3373ffffffffffffffffffffffffffffffffffffffff16600e6000848152602001908152602001600020600a0160019054906101000a900473ffffffffffffffffffffffffffffffffffffffff1673ffffffffffffffffffffffffffffffffffffffff1614612673576040517f08c379a000000000000000000000000000000000000000000000000000000000815260040161266a906156e1565b60405180910390fd5b6004600e6000848152602001908152602001600020600a0160006101000a81548160ff0219169083600a8111156126ad576126ac614bbf565b5b021790555080600e600084815260200190815260200160002060000160008282546126d89190614dde565b925050819055507fc8ca2150e6e1849a10ef5aa4932060fa353bcacdffeb150c9e1890c6ab9403cc8260405161270e91906153f0565b60405180910390a15050565b6060600560008373ffffffffffffffffffffffffffffffffffffffff1673ffffffffffffffffffffffffffffffffffffffff168152602001908152602001600020805461276690614eb8565b80601f016020809104026020016040519081016040528092919081815260200182805461279290614eb8565b80156127df5780601f106127b4576101008083540402835291602001916127df565b820191906000526020600020905b8154815290600101906020018083116127c257829003601f168201915b50505050509050919050565b600660008373ffffffffffffffffffffffffffffffffffffffff1673ffffffffffffffffffffffffffffffffffffffff1681526020019081526020016000208190806001815401808255809150506001900390600052602060002001600090919091909150908161285c9190615095565b505050565b6000600460008473ffffffffffffffffffffffffffffffffffffffff1673ffffffffffffffffffffffffffffffffffffffff168152602001908152602001600020826040516128b0919061543c565b908152602001604051809103902060009054906101000a900460ff16905092915050565b6128dd33611d6c565b6128e633610b4b565b612925576040517f08c379a000000000000000000000000000000000000000000000000000000000815260040161291c90615258565b60405180910390fd5b61292f3382613b56565b61296e576040517f08c379a0000000000000000000000000000000000000000000000000000000008152600401612965906152c4565b60405180910390fd5b6000600a81111561298257612981614bbf565b5b600e6000858152602001908152602001600020600a0160009054906101000a900460ff16600a8111156129b8576129b7614bbf565b5b146129f8576040517f08c379a00000000000000000000000000000000000000000000000000000000081526004016129ef90615b45565b60405180910390fd5b3373ffffffffffffffffffffffffffffffffffffffff16600e600085815260200190815260200160002060020160009054906101000a900473ffffffffffffffffffffffffffffffffffffffff1673ffffffffffffffffffffffffffffffffffffffff1614612a9c576040517f08c379a0000000000000000000000000000000000000000000000000000000008152600401612a9390615bb1565b60405180910390fd5b6010600084815260200190815260200160002060009054906101000a900460ff16612afc576040517f08c379a0000000000000000000000000000000000000000000000000000000008152600401612af390615c1d565b60405180910390fd5b6000601160008581526020019081526020016000205411612b52576040517f08c379a0000000000000000000000000000000000000000000000000000000008152600401612b499061539c565b60405180910390fd5b6001600e6000858152602001908152602001600020600a0160006101000a81548160ff0219169083600a811115612b8c57612b8b614bbf565b5b021790555081600e6000858152602001908152602001600020600901819055507f2162176e0c949702126e5e8987e2b0590338315f2eff681f85837f7aea6e19f383604051612bdb91906153f0565b60405180910390a1505050565b600960008573ffffffffffffffffffffffffffffffffffffffff1673ffffffffffffffffffffffffffffffffffffffff16815260200190815260200160002060030160009054906101000a900460ff1615612c78576040517f08c379a0000000000000000000000000000000000000000000000000000000008152600401612c6f90615c89565b60405180910390fd5b604051806080016040528084815260200183815260200182815260200160011515815250600960008673ffffffffffffffffffffffffffffffffffffffff1673ffffffffffffffffffffffffffffffffffffffff1681526020019081526020016000206000820151816000019081612cf09190615095565b506020820151816001019081612d069190615095565b506040820151816002015560608201518160030160006101000a81548160ff021916908315150217905550905050600a849080600181540180825580915050600190039060005260206000200160009091909190916101000a81548173ffffffffffffffffffffffffffffffffffffffff021916908373ffffffffffffffffffffffffffffffffffffffff16021790555050505050565b612da63361325c565b612de5576040517f08c379a0000000000000000000000000000000000000000000000000000000008152600401612ddc906159db565b60405180910390fd5b6006600a811115612df957612df8614bbf565b5b600e6000838152602001908152602001600020600a0160009054906101000a900460ff16600a811115612e2f57612e2e614bbf565b5b14612e6f576040517f08c379a0000000000000000000000000000000000000000000000000000000008152600401612e6690615cf5565b60405180910390fd5b3373ffffffffffffffffffffffffffffffffffffffff16600e6000838152602001908152602001600020600a0160019054906101000a900473ffffffffffffffffffffffffffffffffffffffff1673ffffffffffffffffffffffffffffffffffffffff1614612f13576040517f08c379a0000000000000000000000000000000000000000000000000000000008152600401612f0a906156e1565b60405180910390fd5b6007600e6000838152602001908152602001600020600a0160006101000a81548160ff0219169083600a811115612f4d57612f4c614bbf565b5b02179055507fc5c33776d405e5686e4386e1ef31a65cf6195e4f7ceb8808ab64d05b6ccbc2a681604051612f8191906153f0565b60405180910390a150565b6000808373ffffffffffffffffffffffffffffffffffffffff1673ffffffffffffffffffffffffffffffffffffffff16815260200190815260200160002081908060018154018082558091505060019003906000526020600020016000909190919091509081612ffc9190615095565b505050565b61300a3361325c565b613049576040517f08c379a0000000000000000000000000000000000000000000000000000000008152600401613040906159db565b60405180910390fd5b6004600a81111561305d5761305c614bbf565b5b600e6000848152602001908152602001600020600a0160009054906101000a900460ff16600a81111561309357613092614bbf565b5b146130d3576040517f08c379a00000000000000000000000000000000000000000000000000000000081526004016130ca90615d61565b60405180910390fd5b3373ffffffffffffffffffffffffffffffffffffffff16600e6000848152602001908152602001600020600a0160019054906101000a900473ffffffffffffffffffffffffffffffffffffffff1673ffffffffffffffffffffffffffffffffffffffff1614613177576040517f08c379a000000000000000000000000000000000000000000000000000000000815260040161316e906156e1565b60405180910390fd5b6005600e6000848152602001908152602001600020600a0160006101000a81548160ff0219169083600a8111156131b1576131b0614bbf565b5b021790555080600e6000848152602001908152602001600020600901819055507f539b4a835a8a5d1bc5756a9f146e2bfeaa6bd6b1fa77a7631c0a5154c86cdd038260405161320091906153f0565b60405180910390a15050565b80600560003373ffffffffffffffffffffffffffffffffffffffff1673ffffffffffffffffffffffffffffffffffffffff16815260200190815260200160002090816132589190615095565b5050565b600080600090505b600360008473ffffffffffffffffffffffffffffffffffffffff1673ffffffffffffffffffffffffffffffffffffffff1681526020019081526020016000208054905081101561339357600460008473ffffffffffffffffffffffffffffffffffffffff1673ffffffffffffffffffffffffffffffffffffffff168152602001908152602001600020600360008573ffffffffffffffffffffffffffffffffffffffff1673ffffffffffffffffffffffffffffffffffffffff168152602001908152602001600020828154811061333e5761333d614d80565b5b9060005260206000200160405161335591906151f5565b908152602001604051809103902060009054906101000a900460ff1615613380576001915050613399565b808061338b90614e41565b915050613264565b50600090505b919050565b80600260003373ffffffffffffffffffffffffffffffffffffffff1673ffffffffffffffffffffffffffffffffffffffff16815260200190815260200160002090816133ea9190615095565b5050565b6060806000600960008573ffffffffffffffffffffffffffffffffffffffff1673ffffffffffffffffffffffffffffffffffffffff16815260200190815260200160002060030160009054906101000a900460ff16613482576040517f08c379a000000000000000000000000000000000000000000000000000000000815260040161347990614d60565b60405180910390fd5b600960008573ffffffffffffffffffffffffffffffffffffffff1673ffffffffffffffffffffffffffffffffffffffff168152602001908152602001600020600001600960008673ffffffffffffffffffffffffffffffffffffffff1673ffffffffffffffffffffffffffffffffffffffff168152602001908152602001600020600101600960008773ffffffffffffffffffffffffffffffffffffffff1673ffffffffffffffffffffffffffffffffffffffff1681526020019081526020016000206002015482805461355590614eb8565b80601f016020809104026020016040519081016040528092919081815260200182805461358190614eb8565b80156135ce5780601f106135a3576101008083540402835291602001916135ce565b820191906000526020600020905b8154815290600101906020018083116135b157829003601f168201915b505050505092508180546135e190614eb8565b80601f016020809104026020016040519081016040528092919081815260200182805461360d90614eb8565b801561365a5780601f1061362f5761010080835404028352916020019161365a565b820191906000526020600020905b81548152906001019060200180831161363d57829003601f168201915b505050505091509250925092509193909250565b6001600460003373ffffffffffffffffffffffffffffffffffffffff1673ffffffffffffffffffffffffffffffffffffffff168152602001908152602001600020826040516136bd919061543c565b908152602001604051809103902060006101000a81548160ff02191690831515021790555050565b600080600060606000806000806000806060806000600e60008f8152602001908152602001600020604051806101c001604052908160008201548152602001600182015481526020016002820160009054906101000a900473ffffffffffffffffffffffffffffffffffffffff1673ffffffffffffffffffffffffffffffffffffffff1673ffffffffffffffffffffffffffffffffffffffff1681526020016003820160009054906101000a900473ffffffffffffffffffffffffffffffffffffffff1673ffffffffffffffffffffffffffffffffffffffff1673ffffffffffffffffffffffffffffffffffffffff1681526020016004820180546137e990614eb8565b80601f016020809104026020016040519081016040528092919081815260200182805461381590614eb8565b80156138625780601f1061383757610100808354040283529160200191613862565b820191906000526020600020905b81548152906001019060200180831161384557829003601f168201915b5050505050815260200160058201805461387b90614eb8565b80601f01602080910402602001604051908101604052809291908181526020018280546138a790614eb8565b80156138f45780601f106138c9576101008083540402835291602001916138f4565b820191906000526020600020905b8154815290600101906020018083116138d757829003601f168201915b505050505081526020016006820154815260200160078201805461391790614eb8565b80601f016020809104026020016040519081016040528092919081815260200182805461394390614eb8565b80156139905780601f1061396557610100808354040283529160200191613990565b820191906000526020600020905b81548152906001019060200180831161397357829003601f168201915b505050505081526020016008820154815260200160098201548152602001600a820160009054906101000a900460ff16600a8111156139d2576139d1614bbf565b5b600a8111156139e4576139e3614bbf565b5b8152602001600a820160019054906101000a900473ffffffffffffffffffffffffffffffffffffffff1673ffffffffffffffffffffffffffffffffffffffff1673ffffffffffffffffffffffffffffffffffffffff168152602001600b820160009054906101000a900473ffffffffffffffffffffffffffffffffffffffff1673ffffffffffffffffffffffffffffffffffffffff1673ffffffffffffffffffffffffffffffffffffffff168152602001600c820160009054906101000a900473ffffffffffffffffffffffffffffffffffffffff1673ffffffffffffffffffffffffffffffffffffffff1673ffffffffffffffffffffffffffffffffffffffff16815250509050806000015181602001518260c001518360e00151846101200151856101000151866101400151876101600151886101800151896101a001518a608001518b60a001519c509c509c509c509c509c509c509c509c509c509c509c505091939597999b5091939597999b565b6000600160008473ffffffffffffffffffffffffffffffffffffffff1673ffffffffffffffffffffffffffffffffffffffff16815260200190815260200160002082604051613ba5919061543c565b908152602001604051809103902060009054906101000a900460ff16905092915050565b60106020528060005260406000206000915054906101000a900460ff1681565b6060600660008373ffffffffffffffffffffffffffffffffffffffff1673ffffffffffffffffffffffffffffffffffffffff168152602001908152602001600020805480602002602001604051908101604052809291908181526020016000905b82821015613cf6578382906000526020600020018054613c6990614eb8565b80601f0160208091040260200160405190810160405280929190818152602001828054613c9590614eb8565b8015613ce25780601f10613cb757610100808354040283529160200191613ce2565b820191906000526020600020905b815481529060010190602001808311613cc557829003601f168201915b505050505081526020019060010190613c4a565b505050509050919050565b613d0a3361325c565b613d49576040517f08c379a0000000000000000000000000000000000000000000000000000000008152600401613d4090615dcd565b60405180910390fd5b613d5b33613d563361271a565b612861565b613d9a576040517f08c379a0000000000000000000000000000000000000000000000000000000008152600401613d9190615e39565b60405180910390fd5b6010600084815260200190815260200160002060009054906101000a900460ff16613dfa576040517f08c379a0000000000000000000000000000000000000000000000000000000008152600401613df190615c1d565b60405180910390fd5b6000601160008581526020019081526020016000205411613e50576040517f08c379a0000000000000000000000000000000000000000000000000000000008152600401613e479061539c565b60405180910390fd5b6001600a811115613e6457613e63614bbf565b5b600e6000858152602001908152602001600020600a0160009054906101000a900460ff16600a811115613e9a57613e99614bbf565b5b14613eda576040517f08c379a0000000000000000000000000000000000000000000000000000000008152600401613ed190615531565b60405180910390fd5b81600e60008581526020019081526020016000206009015414613f32576040517f08c379a0000000000000000000000000000000000000000000000000000000008152600401613f299061559d565b60405180910390fd5b80600e6000858152602001908152602001600020600001541015613f8b576040517f08c379a0000000000000000000000000000000000000000000000000000000008152600401613f8290615ea5565b60405180910390fd5b33600e600085815260200190815260200160002060020160006101000a81548173ffffffffffffffffffffffffffffffffffffffff021916908373ffffffffffffffffffffffffffffffffffffffff16021790555033600e6000858152602001908152602001600020600a0160016101000a81548173ffffffffffffffffffffffffffffffffffffffff021916908373ffffffffffffffffffffffffffffffffffffffff1602179055506002600e6000858152602001908152602001600020600a0160006101000a81548160ff0219169083600a81111561406f5761406e614bbf565b5b021790555043600f6000858152602001908152602001600020600001819055507f9d32f0ed1479bf9394e92a92a981f0c7e189b3a9f902ad7384dffb113490d2b5836040516140be91906153f0565b60405180910390a1505050565b60606000808373ffffffffffffffffffffffffffffffffffffffff1673ffffffffffffffffffffffffffffffffffffffff168152602001908152602001600020805480602002602001604051908101604052809291908181526020016000905b828210156141d757838290600052602060002001805461414a90614eb8565b80601f016020809104026020016040519081016040528092919081815260200182805461417690614eb8565b80156141c35780601f10614198576101008083540402835291602001916141c3565b820191906000526020600020905b8154815290600101906020018083116141a657829003601f168201915b50505050508152602001906001019061412b565b505050509050919050565b5080546141ee90614eb8565b6000825580601f10614200575061421f565b601f01602090049060005260206000209081019061421e9190614332565b5b50565b604051806101c001604052806000815260200160008152602001600073ffffffffffffffffffffffffffffffffffffffff168152602001600073ffffffffffffffffffffffffffffffffffffffff1681526020016060815260200160608152602001600081526020016060815260200160008152602001600081526020016000600a8111156142b4576142b3614bbf565b5b8152602001600073ffffffffffffffffffffffffffffffffffffffff168152602001600073ffffffffffffffffffffffffffffffffffffffff168152602001600073ffffffffffffffffffffffffffffffffffffffff1681525090565b60405180606001604052806000815260200160008152602001600081525090565b5b8082111561434b576000816000905550600101614333565b5090565b6000604051905090565b600080fd5b600080fd5b600073ffffffffffffffffffffffffffffffffffffffff82169050919050565b600061438e82614363565b9050919050565b61439e81614383565b81146143a957600080fd5b50565b6000813590506143bb81614395565b92915050565b6000602082840312156143d7576143d6614359565b5b60006143e5848285016143ac565b91505092915050565b6000819050919050565b614401816143ee565b811461440c57600080fd5b50565b60008135905061441e816143f8565b92915050565b60006020828403121561443a57614439614359565b5b60006144488482850161440f565b91505092915050565b61445a816143ee565b82525050565b60006060820190506144756000830186614451565b6144826020830185614451565b61448f6040830184614451565b949350505050565b600080fd5b600080fd5b6000601f19601f8301169050919050565b7f4e487b7100000000000000000000000000000000000000000000000000000000600052604160045260246000fd5b6144ea826144a1565b810181811067ffffffffffffffff82111715614509576145086144b2565b5b80604052505050565b600061451c61434f565b905061452882826144e1565b919050565b600067ffffffffffffffff821115614548576145476144b2565b5b614551826144a1565b9050602081019050919050565b82818337600083830152505050565b600061458061457b8461452d565b614512565b90508281526020810184848401111561459c5761459b61449c565b5b6145a784828561455e565b509392505050565b600082601f8301126145c4576145c3614497565b5b81356145d484826020860161456d565b91505092915050565b600080604083850312156145f4576145f3614359565b5b6000614602858286016143ac565b925050602083013567ffffffffffffffff8111156146235761462261435e565b5b61462f858286016145af565b9150509250929050565b60008115159050919050565b61464e81614639565b82525050565b60006020820190506146696000830184614645565b92915050565b60008060008060008060c0878903121561468c5761468b614359565b5b600061469a89828a0161440f565b96505060206146ab89828a0161440f565b955050604087013567ffffffffffffffff8111156146cc576146cb61435e565b5b6146d889828a016145af565b945050606087013567ffffffffffffffff8111156146f9576146f861435e565b5b61470589828a016145af565b935050608087013567ffffffffffffffff8111156147265761472561435e565b5b61473289828a016145af565b92505060a061474389828a0161440f565b9150509295509295509295565b60006020828403121561476657614765614359565b5b600082013567ffffffffffffffff8111156147845761478361435e565b5b614790848285016145af565b91505092915050565b6000806000606084860312156147b2576147b1614359565b5b60006147c08682870161440f565b93505060206147d18682870161440f565b92505060406147e28682870161440f565b9150509250925092565b600081519050919050565b600082825260208201905092915050565b6000819050602082019050919050565b61482181614383565b82525050565b60006148338383614818565b60208301905092915050565b6000602082019050919050565b6000614857826147ec565b61486181856147f7565b935061486c83614808565b8060005b8381101561489d5781516148848882614827565b975061488f8361483f565b925050600181019050614870565b5085935050505092915050565b600060208201905081810360008301526148c4818461484c565b905092915050565b600081519050919050565b600082825260208201905092915050565b6000819050602082019050919050565b600081519050919050565b600082825260208201905092915050565b60005b83811015614932578082015181840152602081019050614917565b60008484015250505050565b6000614949826148f8565b6149538185614903565b9350614963818560208601614914565b61496c816144a1565b840191505092915050565b6000614983838361493e565b905092915050565b6000602082019050919050565b60006149a3826148cc565b6149ad81856148d7565b9350836020820285016149bf856148e8565b8060005b858110156149fb57848403895281516149dc8582614977565b94506149e78361498b565b925060208a019950506001810190506149c3565b50829750879550505050505092915050565b60006020820190508181036000830152614a278184614998565b905092915050565b60008060408385031215614a4657614a45614359565b5b6000614a548582860161440f565b9250506020614a658582860161440f565b9150509250929050565b600082825260208201905092915050565b6000614a8b826148f8565b614a958185614a6f565b9350614aa5818560208601614914565b614aae816144a1565b840191505092915050565b60006020820190508181036000830152614ad38184614a80565b905092915050565b60008060008060808587031215614af557614af4614359565b5b6000614b03878288016143ac565b945050602085013567ffffffffffffffff811115614b2457614b2361435e565b5b614b30878288016145af565b935050604085013567ffffffffffffffff811115614b5157614b5061435e565b5b614b5d878288016145af565b9250506060614b6e8782880161440f565b91505092959194509250565b60006060820190508181036000830152614b948186614a80565b90508181036020830152614ba88185614a80565b9050614bb76040830184614451565b949350505050565b7f4e487b7100000000000000000000000000000000000000000000000000000000600052602160045260246000fd5b600b8110614bff57614bfe614bbf565b5b50565b6000819050614c1082614bee565b919050565b6000614c2082614c02565b9050919050565b614c3081614c15565b82525050565b614c3f81614383565b82525050565b600061018082019050614c5b600083018f614451565b614c68602083018e614451565b614c75604083018d614451565b8181036060830152614c87818c614a80565b9050614c96608083018b614451565b614ca360a083018a614451565b614cb060c0830189614c27565b614cbd60e0830188614c36565b614ccb610100830187614c36565b614cd9610120830186614c36565b818103610140830152614cec8185614a80565b9050818103610160830152614d018184614a80565b90509d9c50505050505050505050505050565b7f436f6e73756d6572206e6f742072656769737465726564000000000000000000600082015250565b6000614d4a601783614a6f565b9150614d5582614d14565b602082019050919050565b60006020820190508181036000830152614d7981614d3d565b9050919050565b7f4e487b7100000000000000000000000000000000000000000000000000000000600052603260045260246000fd5b7f4e487b7100000000000000000000000000000000000000000000000000000000600052601160045260246000fd5b6000614de9826143ee565b9150614df4836143ee565b9250828203905081811115614e0c57614e0b614daf565b5b92915050565b7f4e487b7100000000000000000000000000000000000000000000000000000000600052603160045260246000fd5b6000614e4c826143ee565b91507fffffffffffffffffffffffffffffffffffffffffffffffffffffffffffffffff8203614e7e57614e7d614daf565b5b600182019050919050565b7f4e487b7100000000000000000000000000000000000000000000000000000000600052602260045260246000fd5b60006002820490506001821680614ed057607f821691505b602082108103614ee357614ee2614e89565b5b50919050565b60008190508160005260206000209050919050565b60006020601f8301049050919050565b600082821b905092915050565b600060088302614f4b7fffffffffffffffffffffffffffffffffffffffffffffffffffffffffffffffff82614f0e565b614f558683614f0e565b95508019841693508086168417925050509392505050565b6000819050919050565b6000614f92614f8d614f88846143ee565b614f6d565b6143ee565b9050919050565b6000819050919050565b614fac83614f77565b614fc0614fb882614f99565b848454614f1b565b825550505050565b600090565b614fd5614fc8565b614fe0818484614fa3565b505050565b5b8181101561500457614ff9600082614fcd565b600181019050614fe6565b5050565b601f8211156150495761501a81614ee9565b61502384614efe565b81016020851015615032578190505b61504661503e85614efe565b830182614fe5565b50505b505050565b600082821c905092915050565b600061506c6000198460080261504e565b1980831691505092915050565b6000615085838361505b565b9150826002028217905092915050565b61509e826148f8565b67ffffffffffffffff8111156150b7576150b66144b2565b5b6150c18254614eb8565b6150cc828285615008565b600060209050601f8311600181146150ff57600084156150ed578287015190505b6150f78582615079565b86555061515f565b601f19841661510d86614ee9565b60005b8281101561513557848901518255600182019150602085019450602081019050615110565b86831015615152578489015161514e601f89168261505b565b8355505b6001600288020188555050505b505050505050565b600081905092915050565b6000815461517f81614eb8565b6151898186615167565b945060018216600081146151a457600181146151b9576151ec565b60ff19831686528115158202860193506151ec565b6151c285614ee9565b60005b838110156151e4578154818901526001820191506020810190506151c5565b838801955050505b50505092915050565b60006152018284615172565b915081905092915050565b7f4d616e756661637475726572206e6f7420726567697374657265640000000000600082015250565b6000615242601b83614a6f565b915061524d8261520c565b602082019050919050565b6000602082019050818103600083015261527181615235565b9050919050565b7f4d616e756661637475726572206e616d65206e6f742072656769737465726564600082015250565b60006152ae602083614a6f565b91506152b982615278565b602082019050919050565b600060208201905081810360008301526152dd816152a1565b9050919050565b7f50726f6475637420636f646520616c7265616479206578697374730000000000600082015250565b600061531a601b83614a6f565b9150615325826152e4565b602082019050919050565b600060208201905081810360008301526153498161530d565b9050919050565b7f53746f636b20756e697473206e6f7420617661696c61626c6500000000000000600082015250565b6000615386601983614a6f565b915061539182615350565b602082019050919050565b600060208201905081810360008301526153b581615379565b9050919050565b60006153c7826143ee565b91506153d2836143ee565b92508282019050808211156153ea576153e9614daf565b5b92915050565b60006020820190506154056000830184614451565b92915050565b6000615416826148f8565b6154208185615167565b9350615430818560208601614914565b80840191505092915050565b6000615448828461540b565b915081905092915050565b7f4f6e6c7920726567697374657265642072657461696c6572732063616e20706560008201527f72666f726d207468697320616374696f6e000000000000000000000000000000602082015250565b60006154af603183614a6f565b91506154ba82615453565b604082019050919050565b600060208201905081810360008301526154de816154a2565b9050919050565b7f4974656d206e6f7420617661696c61626c6520666f7220707572636861736500600082015250565b600061551b601f83614a6f565b9150615526826154e5565b602082019050919050565b6000602082019050818103600083015261554a8161550e565b9050919050565b7f496e636f727265637420707269636520666f7220746865206974656d00000000600082015250565b6000615587601c83614a6f565b915061559282615551565b602082019050919050565b600060208201905081810360008301526155b68161557a565b9050919050565b7f496e76616c6964207175616e7469747900000000000000000000000000000000600082015250565b60006155f3601083614a6f565b91506155fe826155bd565b602082019050919050565b60006020820190508181036000830152615622816155e6565b9050919050565b7f4974656d206e6f742073686970706564206279206469737472696275746f7200600082015250565b600061565f601f83614a6f565b915061566a82615629565b602082019050919050565b6000602082019050818103600083015261568e81615652565b9050919050565b7f596f7520646f6e2774206f776e20746869732070726f64756374000000000000600082015250565b60006156cb601a83614a6f565b91506156d682615695565b602082019050919050565b600060208201905081810360008301526156fa816156be565b9050919050565b7f596f75277265206e6f742061207265676973746572656420636f6e73756d6572600082015250565b6000615737602083614a6f565b915061574282615701565b602082019050919050565b600060208201905081810360008301526157668161572a565b9050919050565b7f4f6e6c792072656769737465726564206d616e7566616374757265727320636160008201527f6e20706572666f726d207468697320616374696f6e0000000000000000000000602082015250565b60006157c9603583614a6f565b91506157d48261576d565b604082019050919050565b600060208201905081810360008301526157f8816157bc565b9050919050565b7f4974656d206e6f7420707572636861736564206279206469737472696275746f60008201527f7200000000000000000000000000000000000000000000000000000000000000602082015250565b600061585b602183614a6f565b9150615866826157ff565b604082019050919050565b6000602082019050818103600083015261588a8161584e565b9050919050565b7f496e73756666696369656e742073746f636b20666f7220736869706d656e7400600082015250565b60006158c7601f83614a6f565b91506158d282615891565b602082019050919050565b600060208201905081810360008301526158f6816158ba565b9050919050565b7f4974656d206e6f742072656365697665642062792072657461696c6572000000600082015250565b6000615933601d83614a6f565b915061593e826158fd565b602082019050919050565b6000602082019050818103600083015261596281615926565b9050919050565b7f4f6e6c792072656769737465726564206469737472696275746f72732063616e60008201527f20706572666f726d207468697320616374696f6e000000000000000000000000602082015250565b60006159c5603483614a6f565b91506159d082615969565b604082019050919050565b600060208201905081810360008301526159f4816159b8565b9050919050565b7f4974656d206e6f74207368697070656420796574000000000000000000000000600082015250565b6000615a31601483614a6f565b9150615a3c826159fb565b602082019050919050565b60006020820190508181036000830152615a6081615a24565b9050919050565b7f5265636569766564207175616e74697479206578636565647320617661696c6160008201527f626c652073746f636b0000000000000000000000000000000000000000000000602082015250565b6000615ac3602983614a6f565b9150615ace82615a67565b604082019050919050565b60006020820190508181036000830152615af281615ab6565b9050919050565b7f4974656d206e6f742070726f6475636564207965740000000000000000000000600082015250565b6000615b2f601583614a6f565b9150615b3a82615af9565b602082019050919050565b60006020820190508181036000830152615b5e81615b22565b9050919050565b7f4e6f7420746865206974656d206f776e65720000000000000000000000000000600082015250565b6000615b9b601283614a6f565b9150615ba682615b65565b602082019050919050565b60006020820190508181036000830152615bca81615b8e565b9050919050565b7f50726f6475637420646f6573206e6f7420657869737400000000000000000000600082015250565b6000615c07601683614a6f565b9150615c1282615bd1565b602082019050919050565b60006020820190508181036000830152615c3681615bfa565b9050919050565b7f436f6e73756d657220616c726561647920726567697374657265640000000000600082015250565b6000615c73601b83614a6f565b9150615c7e82615c3d565b602082019050919050565b60006020820190508181036000830152615ca281615c66565b9050919050565b7f4974656d206e6f74207075726368617365642062792072657461696c65720000600082015250565b6000615cdf601e83614a6f565b9150615cea82615ca9565b602082019050919050565b60006020820190508181036000830152615d0e81615cd2565b9050919050565b7f4974656d206e6f74207061636b61676564207965740000000000000000000000600082015250565b6000615d4b601583614a6f565b9150615d5682615d15565b602082019050919050565b60006020820190508181036000830152615d7a81615d3e565b9050919050565b7f4e6f7420612072656769737465726564206469737472696275746f7200000000600082015250565b6000615db7601c83614a6f565b9150615dc282615d81565b602082019050919050565b60006020820190508181036000830152615de681615daa565b9050919050565b7f4469737472696275746f72206e616d65206e6f74207265676973746572656400600082015250565b6000615e23601f83614a6f565b9150615e2e82615ded565b602082019050919050565b60006020820190508181036000830152615e5281615e16565b9050919050565b7f496e73756666696369656e742073746f636b0000000000000000000000000000600082015250565b6000615e8f601283614a6f565b9150615e9a82615e59565b602082019050919050565b60006020820190508181036000830152615ebe81615e82565b905091905056fea2646970667358221220498d4e255913cdd89c02bfcb90ca50b38490f0e901df7e8a119178b98d21153564736f6c63430008110033",
  "linkReferences": {},
  "deployedLinkReferences": {}
}