{
  "_format": "hh-sol-artifact-1",
  "contractName": "supplychain111",
  "sourceName": "contracts/supplychain.sol",
  "abi": [
    {
      "inputs": [],
      "stateMutability": "nonpayable",
      "type": "constructor"
    },
    {
      "anonymous": false,
      "inputs": [
        {
          "indexed": false,
          "internalType": "uint256",
          "name": "productCode",
          "type": "uint256"
        }
      ],
      "name": "ForSaleByDistributor",
      "type": "event"
    },
    {
      "anonymous": false,
      "inputs": [
        {
          "indexed": false,
          "internalType": "uint256",
          "name": "productCode",
          "type": "uint256"
        }
      ],
      "name": "ForSaleByRetailer",
      "type": "event"
    },
    {
      "anonymous": false,
      "inputs": [
        {
          "indexed": false,
          "internalType": "uint256",
          "name": "productCode",
          "type": "uint256"
        }
      ],
      "name": "ProduceByManufacturer",
      "type": "event"
    },
    {
      "anonymous": false,
      "inputs": [
        {
          "indexed": false,
          "internalType": "uint256",
          "name": "productCode",
          "type": "uint256"
        }
      ],
      "name": "PurchasedByConsumer",
      "type": "event"
    },
    {
      "anonymous": false,
      "inputs": [
        {
          "indexed": false,
          "internalType": "uint256",
          "name": "productCode",
          "type": "uint256"
        }
      ],
      "name": "PurchasedByRetailer",
      "type": "event"
    },
    {
      "anonymous": false,
      "inputs": [
        {
          "indexed": false,
          "internalType": "uint256",
          "name": "productCode",
          "type": "uint256"
        }
      ],
      "name": "ReceivedByDistributor",
      "type": "event"
    },
    {
      "anonymous": false,
      "inputs": [
        {
          "indexed": false,
          "internalType": "uint256",
          "name": "productCode",
          "type": "uint256"
        }
      ],
      "name": "ReceivedByRetailer",
      "type": "event"
    },
    {
      "anonymous": false,
      "inputs": [
        {
          "indexed": false,
          "internalType": "uint256",
          "name": "productCode",
          "type": "uint256"
        }
      ],
      "name": "ShippedByDistributor",
      "type": "event"
    },
    {
      "anonymous": false,
      "inputs": [
        {
          "indexed": false,
          "internalType": "uint256",
          "name": "productCode",
          "type": "uint256"
        }
      ],
      "name": "ShippedByManufacturer",
      "type": "event"
    },
    {
      "anonymous": false,
      "inputs": [
        {
          "indexed": false,
          "internalType": "uint256",
          "name": "productCode",
          "type": "uint256"
        }
      ],
      "name": "forSaleByManufacturer",
      "type": "event"
    },
    {
      "anonymous": false,
      "inputs": [
        {
          "indexed": false,
          "internalType": "uint256",
          "name": "productCode",
          "type": "uint256"
        }
      ],
      "name": "purchasedByDistributor",
      "type": "event"
    },
    {
      "inputs": [
        {
          "internalType": "address",
          "name": "_consumerAddress",
          "type": "address"
        },
        {
          "internalType": "string",
          "name": "_name",
          "type": "string"
        },
        {
          "internalType": "string",
          "name": "_livingAddress",
          "type": "string"
        },
        {
          "internalType": "uint256",
          "name": "_postalCode",
          "type": "uint256"
        }
      ],
      "name": "addConsumer",
      "outputs": [],
      "stateMutability": "nonpayable",
      "type": "function"
    },
    {
      "inputs": [
        {
          "internalType": "address",
          "name": "_user",
          "type": "address"
        },
        {
          "internalType": "string",
          "name": "_name",
          "type": "string"
        }
      ],
      "name": "addDistributor",
      "outputs": [],
      "stateMutability": "nonpayable",
      "type": "function"
    },
    {
      "inputs": [
        {
          "internalType": "address",
          "name": "_user",
          "type": "address"
        },
        {
          "internalType": "string",
          "name": "_name",
          "type": "string"
        }
      ],
      "name": "addManufacturer",
      "outputs": [],
      "stateMutability": "nonpayable",
      "type": "function"
    },
    {
      "inputs": [
        {
          "internalType": "address",
          "name": "_user",
          "type": "address"
        },
        {
          "internalType": "string",
          "name": "_name",
          "type": "string"
        }
      ],
      "name": "addRetailer",
      "outputs": [],
      "stateMutability": "nonpayable",
      "type": "function"
    },
    {
      "inputs": [
        {
          "internalType": "uint256",
          "name": "_productCode",
          "type": "uint256"
        },
        {
          "internalType": "uint256",
          "name": "_price",
          "type": "uint256"
        },
        {
          "internalType": "uint256",
          "name": "_quantity",
          "type": "uint256"
        }
      ],
      "name": "buyItemByConsumer",
      "outputs": [],
      "stateMutability": "nonpayable",
      "type": "function"
    },
    {
      "inputs": [
        {
          "internalType": "uint256",
          "name": "_productCode",
          "type": "uint256"
        }
      ],
      "name": "fetchItemtwo",
      "outputs": [
        {
          "internalType": "uint256",
          "name": "itemproductcode",
          "type": "uint256"
        },
        {
          "internalType": "string",
          "name": "productNotes",
          "type": "string"
        },
        {
          "internalType": "uint256",
          "name": "productPrice",
          "type": "uint256"
        },
        {
          "internalType": "uint256",
          "name": "productDate",
          "type": "uint256"
        },
        {
          "internalType": "string",
          "name": "manufacturerName",
          "type": "string"
        },
        {
          "internalType": "address",
          "name": "distributorID",
          "type": "address"
        },
        {
          "internalType": "address",
          "name": "retailerID",
          "type": "address"
        }
      ],
      "stateMutability": "view",
      "type": "function"
    },
    {
      "inputs": [
        {
          "internalType": "uint256",
          "name": "_productCode",
          "type": "uint256"
        }
      ],
      "name": "fetchProductStatus",
      "outputs": [
        {
          "internalType": "uint256",
          "name": "forSaleByManufacturerQuantity",
          "type": "uint256"
        },
        {
          "internalType": "uint256",
          "name": "purchasedByDistributorQuantity",
          "type": "uint256"
        },
        {
          "internalType": "uint256",
          "name": "receivedByDistributorQuantity",
          "type": "uint256"
        },
        {
          "internalType": "uint256",
          "name": "forSaleByDistributorQuantity",
          "type": "uint256"
        },
        {
          "internalType": "uint256",
          "name": "purchasedByRetailerQuantity",
          "type": "uint256"
        },
        {
          "internalType": "uint256",
          "name": "receivedByRetailerQuantity",
          "type": "uint256"
        },
        {
          "internalType": "uint256",
          "name": "forSaleByRetailerQuantity",
          "type": "uint256"
        }
      ],
      "stateMutability": "view",
      "type": "function"
    },
    {
      "inputs": [
        {
          "internalType": "uint256",
          "name": "_productCode",
          "type": "uint256"
        }
      ],
      "name": "fetchitemHistory",
      "outputs": [
        {
          "internalType": "uint256",
          "name": "blockManufacutrerToDistributor",
          "type": "uint256"
        },
        {
          "internalType": "uint256",
          "name": "blockDistributorToRetailer",
          "type": "uint256"
        },
        {
          "internalType": "uint256",
          "name": "blockRetailerToConsumer",
          "type": "uint256"
        }
      ],
      "stateMutability": "view",
      "type": "function"
    },
    {
      "inputs": [],
      "name": "getAllConsumers",
      "outputs": [
        {
          "internalType": "address[]",
          "name": "",
          "type": "address[]"
        }
      ],
      "stateMutability": "view",
      "type": "function"
    },
    {
      "inputs": [
        {
          "internalType": "address",
          "name": "_consumerAddress",
          "type": "address"
        }
      ],
      "name": "getConsumer",
      "outputs": [
        {
          "internalType": "string",
          "name": "",
          "type": "string"
        },
        {
          "internalType": "string",
          "name": "",
          "type": "string"
        },
        {
          "internalType": "uint256",
          "name": "",
          "type": "uint256"
        }
      ],
      "stateMutability": "view",
      "type": "function"
    },
    {
      "inputs": [
        {
          "internalType": "address",
          "name": "_manufacturer",
          "type": "address"
        }
      ],
      "name": "getDistributorName",
      "outputs": [
        {
          "internalType": "string",
          "name": "",
          "type": "string"
        }
      ],
      "stateMutability": "view",
      "type": "function"
    },
    {
      "inputs": [
        {
          "internalType": "address",
          "name": "_user",
          "type": "address"
        }
      ],
      "name": "getDistributors",
      "outputs": [
        {
          "internalType": "string[]",
          "name": "",
          "type": "string[]"
        }
      ],
      "stateMutability": "view",
      "type": "function"
    },
    {
      "inputs": [
        {
          "internalType": "address",
          "name": "_manufacturer",
          "type": "address"
        }
      ],
      "name": "getManufacturerName",
      "outputs": [
        {
          "internalType": "string",
          "name": "",
          "type": "string"
        }
      ],
      "stateMutability": "view",
      "type": "function"
    },
    {
      "inputs": [
        {
          "internalType": "address",
          "name": "_user",
          "type": "address"
        }
      ],
      "name": "getManufacturers",
      "outputs": [
        {
          "internalType": "string[]",
          "name": "",
          "type": "string[]"
        }
      ],
      "stateMutability": "view",
      "type": "function"
    },
    {
      "inputs": [
        {
          "internalType": "address",
          "name": "_manufacturer",
          "type": "address"
        }
      ],
      "name": "getRetailerName",
      "outputs": [
        {
          "internalType": "string",
          "name": "",
          "type": "string"
        }
      ],
      "stateMutability": "view",
      "type": "function"
    },
    {
      "inputs": [
        {
          "internalType": "address",
          "name": "_user",
          "type": "address"
        }
      ],
      "name": "getRetailers",
      "outputs": [
        {
          "internalType": "string[]",
          "name": "",
          "type": "string[]"
        }
      ],
      "stateMutability": "view",
      "type": "function"
    },
    {
      "inputs": [
        {
          "internalType": "address",
          "name": "_account",
          "type": "address"
        }
      ],
      "name": "isDistributor",
      "outputs": [
        {
          "internalType": "bool",
          "name": "",
          "type": "bool"
        }
      ],
      "stateMutability": "view",
      "type": "function"
    },
    {
      "inputs": [
        {
          "internalType": "address",
          "name": "_manufacturer",
          "type": "address"
        },
        {
          "internalType": "string",
          "name": "_name",
          "type": "string"
        }
      ],
      "name": "isDistributorNameRegistered",
      "outputs": [
        {
          "internalType": "bool",
          "name": "",
          "type": "bool"
        }
      ],
      "stateMutability": "view",
      "type": "function"
    },
    {
      "inputs": [
        {
          "internalType": "address",
          "name": "_account",
          "type": "address"
        }
      ],
      "name": "isManufacturer",
      "outputs": [
        {
          "internalType": "bool",
          "name": "",
          "type": "bool"
        }
      ],
      "stateMutability": "view",
      "type": "function"
    },
    {
      "inputs": [
        {
          "internalType": "address",
          "name": "_manufacturer",
          "type": "address"
        },
        {
          "internalType": "string",
          "name": "_name",
          "type": "string"
        }
      ],
      "name": "isManufacturerNameRegistered",
      "outputs": [
        {
          "internalType": "bool",
          "name": "",
          "type": "bool"
        }
      ],
      "stateMutability": "view",
      "type": "function"
    },
    {
      "inputs": [
        {
          "internalType": "address",
          "name": "_account",
          "type": "address"
        }
      ],
      "name": "isRetailer",
      "outputs": [
        {
          "internalType": "bool",
          "name": "",
          "type": "bool"
        }
      ],
      "stateMutability": "view",
      "type": "function"
    },
    {
      "inputs": [
        {
          "internalType": "address",
          "name": "_manufacturer",
          "type": "address"
        },
        {
          "internalType": "string",
          "name": "_name",
          "type": "string"
        }
      ],
      "name": "isRetailerNameRegistered",
      "outputs": [
        {
          "internalType": "bool",
          "name": "",
          "type": "bool"
        }
      ],
      "stateMutability": "view",
      "type": "function"
    },
    {
      "inputs": [
        {
          "internalType": "uint256",
          "name": "_stockUnit",
          "type": "uint256"
        },
        {
          "internalType": "uint256",
          "name": "_productCode",
          "type": "uint256"
        },
        {
          "internalType": "string",
          "name": "_manufacturerName",
          "type": "string"
        },
        {
          "internalType": "string",
          "name": "_manufacturerInformation",
          "type": "string"
        },
        {
          "internalType": "string",
          "name": "_productNotes",
          "type": "string"
        },
        {
          "internalType": "uint256",
          "name": "_price",
          "type": "uint256"
        }
      ],
      "name": "produceItemByManufacturer",
      "outputs": [],
      "stateMutability": "nonpayable",
      "type": "function"
    },
    {
      "inputs": [
        {
          "internalType": "uint256",
          "name": "",
          "type": "uint256"
        }
      ],
      "name": "productExists",
      "outputs": [
        {
          "internalType": "bool",
          "name": "",
          "type": "bool"
        }
      ],
      "stateMutability": "view",
      "type": "function"
    },
    {
      "inputs": [
        {
          "internalType": "uint256",
          "name": "",
          "type": "uint256"
        },
        {
          "internalType": "enum supplychain111.State",
          "name": "",
          "type": "uint8"
        }
      ],
      "name": "productStatus",
      "outputs": [
        {
          "internalType": "uint256",
          "name": "",
          "type": "uint256"
        }
      ],
      "stateMutability": "view",
      "type": "function"
    },
    {
      "inputs": [
        {
          "internalType": "uint256",
          "name": "_productCode",
          "type": "uint256"
        },
        {
          "internalType": "uint256",
          "name": "_price",
          "type": "uint256"
        },
        {
          "internalType": "uint256",
          "name": "_quantity",
          "type": "uint256"
        }
      ],
      "name": "purchaseItemByDistributor",
      "outputs": [],
      "stateMutability": "nonpayable",
      "type": "function"
    },
    {
      "inputs": [
        {
          "internalType": "uint256",
          "name": "_productCode",
          "type": "uint256"
        },
        {
          "internalType": "uint256",
          "name": "_quantity",
          "type": "uint256"
        },
        {
          "internalType": "uint256",
          "name": "_price",
          "type": "uint256"
        }
      ],
      "name": "purchaseItemByRetailer",
      "outputs": [],
      "stateMutability": "nonpayable",
      "type": "function"
    },
    {
      "inputs": [
        {
          "internalType": "uint256",
          "name": "_productCode",
          "type": "uint256"
        },
        {
          "internalType": "uint256",
          "name": "_quantity",
          "type": "uint256"
        }
      ],
      "name": "receivedItemByDistributor",
      "outputs": [],
      "stateMutability": "nonpayable",
      "type": "function"
    },
    {
      "inputs": [
        {
          "internalType": "uint256",
          "name": "_productCode",
          "type": "uint256"
        },
        {
          "internalType": "uint256",
          "name": "_quantity",
          "type": "uint256"
        }
      ],
      "name": "receivedItemByRetailer",
      "outputs": [],
      "stateMutability": "nonpayable",
      "type": "function"
    },
    {
      "inputs": [
        {
          "internalType": "string",
          "name": "_name",
          "type": "string"
        }
      ],
      "name": "registerDistributorName",
      "outputs": [],
      "stateMutability": "nonpayable",
      "type": "function"
    },
    {
      "inputs": [
        {
          "internalType": "string",
          "name": "_name",
          "type": "string"
        }
      ],
      "name": "registerManufacturerName",
      "outputs": [],
      "stateMutability": "nonpayable",
      "type": "function"
    },
    {
      "inputs": [
        {
          "internalType": "string",
          "name": "_name",
          "type": "string"
        }
      ],
      "name": "registerRetailerName",
      "outputs": [],
      "stateMutability": "nonpayable",
      "type": "function"
    },
    {
      "inputs": [
        {
          "internalType": "address",
          "name": "_consumerAddress",
          "type": "address"
        }
      ],
      "name": "removeConsumer",
      "outputs": [],
      "stateMutability": "nonpayable",
      "type": "function"
    },
    {
      "inputs": [
        {
          "internalType": "uint256",
          "name": "_productCode",
          "type": "uint256"
        },
        {
          "internalType": "uint256",
          "name": "_price",
          "type": "uint256"
        },
        {
          "internalType": "uint256",
          "name": "_quantity",
          "type": "uint256"
        }
      ],
      "name": "sellItemByDistributor",
      "outputs": [],
      "stateMutability": "nonpayable",
      "type": "function"
    },
    {
      "inputs": [
        {
          "internalType": "uint256",
          "name": "_productCode",
          "type": "uint256"
        },
        {
          "internalType": "uint256",
          "name": "_price",
          "type": "uint256"
        }
      ],
      "name": "sellItemByManufacturer",
      "outputs": [],
      "stateMutability": "nonpayable",
      "type": "function"
    },
    {
      "inputs": [
        {
          "internalType": "uint256",
          "name": "_productCode",
          "type": "uint256"
        },
        {
          "internalType": "uint256",
          "name": "_price",
          "type": "uint256"
        },
        {
          "internalType": "uint256",
          "name": "_quantity",
          "type": "uint256"
        }
      ],
      "name": "sellItemByRetailer",
      "outputs": [],
      "stateMutability": "nonpayable",
      "type": "function"
    },
    {
      "inputs": [
        {
          "internalType": "string",
          "name": "_name",
          "type": "string"
        }
      ],
      "name": "setDistributorName",
      "outputs": [],
      "stateMutability": "nonpayable",
      "type": "function"
    },
    {
      "inputs": [
        {
          "internalType": "string",
          "name": "_name",
          "type": "string"
        }
      ],
      "name": "setManufacturerName",
      "outputs": [],
      "stateMutability": "nonpayable",
      "type": "function"
    },
    {
      "inputs": [
        {
          "internalType": "string",
          "name": "_name",
          "type": "string"
        }
      ],
      "name": "setRetailerName",
      "outputs": [],
      "stateMutability": "nonpayable",
      "type": "function"
    },
    {
      "inputs": [
        {
          "internalType": "uint256",
          "name": "_productCode",
          "type": "uint256"
        }
      ],
      "name": "shippedItemByDistributor",
      "outputs": [],
      "stateMutability": "nonpayable",
      "type": "function"
    },
    {
      "inputs": [
        {
          "internalType": "uint256",
          "name": "_productCode",
          "type": "uint256"
        }
      ],
      "name": "shippedItemByManufacturer",
      "outputs": [],
      "stateMutability": "nonpayable",
      "type": "function"
    }
  ],
  "bytecode": "0x608060405234801561001057600080fd5b5033600b60006101000a81548173ffffffffffffffffffffffffffffffffffffffff021916908373ffffffffffffffffffffffffffffffffffffffff160217905550615fe280620000626000396000f3fe608060405234801561001057600080fd5b50600436106102535760003560e01c806375c6da2311610146578063993084e8116100c3578063b9a40d0411610087578063b9a40d0414610750578063c1ad521b1461076c578063df306531146107a2578063e79d9480146107d2578063ee3cf0b814610802578063f49f4f3e1461081e57610253565b8063993084e81461066c5780639e5480711461069e578063a0562e19146106ba578063a7457f74146106f0578063af55ed641461072057610253565b806382e831ec1161010a57806382e831ec146105cc5780638a8e0a2e146105e85780638d70885e146106045780638f0c86fa14610620578063982b39b41461065057610253565b806375c6da231461052c57806377795a541461054857806377f3312b14610578578063808d9f00146105945780638142d285146105b057610253565b8063364603be116101d4578063568fa58c11610198578063568fa58c146104645780635da09b88146104945780636522c830146104c45780636b6c4b76146104e05780637056bd74146104fc57610253565b8063364603be146103ae578063364dfb74146103ca57806338400b1f146103e8578063384e01d1146104045780634de122591461043457610253565b806317d4a4911161021b57806317d4a491146102fa5780632ccf410d1461032a5780632dc25e72146103465780632fe6925114610376578063322a4dee1461039257610253565b80630e27e3df146102585780631154501c1461027457806311b8d6ba146102a65780631214d2fd146102c257806315a7257b146102de575b600080fd5b610272600480360381019061026d919061456c565b61084e565b005b61028e600480360381019061028991906145cf565b610aeb565b60405161029d9392919061460b565b60405180910390f35b6102c060048036038101906102bb9190614642565b610b4c565b005b6102dc60048036038101906102d791906147db565b610d44565b005b6102f860048036038101906102f39190614837565b610dba565b005b610314600480360381019061030f919061456c565b610ff6565b6040516103219190614892565b60405180910390f35b610344600480360381019061033f91906148ad565b611136565b005b610360600480360381019061035b91906147db565b61180a565b60405161036d9190614892565b60405180910390f35b610390600480360381019061038b919061498e565b61187d565b005b6103ac60048036038101906103a7919061498e565b6118cd565b005b6103c860048036038101906103c39190614642565b611944565b005b6103d2611bdd565b6040516103df9190614a95565b60405180910390f35b61040260048036038101906103fd919061498e565b611c6b565b005b61041e6004803603810190610419919061456c565b611ce1565b60405161042b9190614bf8565b60405180910390f35b61044e6004803603810190610449919061456c565b611df9565b60405161045b9190614c64565b60405180910390f35b61047e6004803603810190610479919061456c565b611eca565b60405161048b9190614c64565b60405180910390f35b6104ae60048036038101906104a9919061456c565b611f9b565b6040516104bb9190614892565b60405180910390f35b6104de60048036038101906104d99190614642565b6120dd565b005b6104fa60048036038101906104f59190614837565b6123d9565b005b6105166004803603810190610511919061456c565b612615565b6040516105239190614c64565b60405180910390f35b610546600480360381019061054191906147db565b6126e6565b005b610562600480360381019061055d91906147db565b61275c565b60405161056f9190614892565b60405180910390f35b610592600480360381019061058d9190614837565b6127cf565b005b6105ae60048036038101906105a99190614c86565b612ac8565b005b6105ca60048036038101906105c59190614642565b612c7d565b005b6105e660048036038101906105e191906145cf565b612e63565b005b61060260048036038101906105fd91906147db565b612fe9565b005b61061e6004803603810190610619919061498e565b61305e565b005b61063a6004803603810190610635919061456c565b6130ae565b6040516106479190614892565b60405180910390f35b61066a6004803603810190610665919061498e565b6131f0565b005b6106866004803603810190610681919061456c565b613240565b60405161069593929190614d25565b60405180910390f35b6106b860048036038101906106b3919061498e565b6134c0565b005b6106d460048036038101906106cf91906145cf565b613537565b6040516106e79796959493929190614d79565b60405180910390f35b61070a600480360381019061070591906147db565b613997565b6040516107179190614892565b60405180910390f35b61073a600480360381019061073591906145cf565b613a0a565b6040516107479190614892565b60405180910390f35b61076a600480360381019061076591906145cf565b613a2a565b005b610786600480360381019061078191906145cf565b613bb0565b6040516107999796959493929190614df6565b60405180910390f35b6107bc60048036038101906107b7919061456c565b613dda565b6040516107c99190614bf8565b60405180910390f35b6107ec60048036038101906107e79190614e8a565b613ef2565b6040516107f99190614eca565b60405180910390f35b61081c60048036038101906108179190614642565b613f17565b005b6108386004803603810190610833919061456c565b614261565b6040516108459190614bf8565b60405180910390f35b600960008273ffffffffffffffffffffffffffffffffffffffff1673ffffffffffffffffffffffffffffffffffffffff16815260200190815260200160002060030160009054906101000a900460ff166108dd576040517f08c379a00000000000000000000000000000000000000000000000000000000081526004016108d490614f31565b60405180910390fd5b600960008273ffffffffffffffffffffffffffffffffffffffff1673ffffffffffffffffffffffffffffffffffffffff1681526020019081526020016000206000808201600061092d9190614378565b60018201600061093d9190614378565b60028201600090556003820160006101000a81549060ff0219169055505060005b600a80549050811015610ae7578173ffffffffffffffffffffffffffffffffffffffff16600a828154811061099657610995614f51565b5b9060005260206000200160009054906101000a900473ffffffffffffffffffffffffffffffffffffffff1673ffffffffffffffffffffffffffffffffffffffff1603610ad457600a6001600a805490506109f09190614faf565b81548110610a0157610a00614f51565b5b9060005260206000200160009054906101000a900473ffffffffffffffffffffffffffffffffffffffff16600a8281548110610a4057610a3f614f51565b5b9060005260206000200160006101000a81548173ffffffffffffffffffffffffffffffffffffffff021916908373ffffffffffffffffffffffffffffffffffffffff160217905550600a805480610a9a57610a99614fe3565b5b6001900381819060005260206000200160006101000a81549073ffffffffffffffffffffffffffffffffffffffff02191690559055610ae7565b8080610adf90615012565b91505061095e565b5050565b600080600080600f600086815260200190815260200160002060405180606001604052908160008201548152602001600182015481526020016002820154815250509050806000015181602001518260400151935093509350509193909250565b610b5533611f9b565b610b94576040517f08c379a0000000000000000000000000000000000000000000000000000000008152600401610b8b906150cc565b60405180910390fd5b806012600085815260200190815260200160002060006008600a811115610bbe57610bbd6150ec565b5b600a811115610bd057610bcf6150ec565b5b8152602001908152602001600020541015610c20576040517f08c379a0000000000000000000000000000000000000000000000000000000008152600401610c1790615167565b60405180910390fd5b3373ffffffffffffffffffffffffffffffffffffffff16600e6000858152602001908152602001600020600e0160009054906101000a900473ffffffffffffffffffffffffffffffffffffffff1673ffffffffffffffffffffffffffffffffffffffff1614610cc4576040517f08c379a0000000000000000000000000000000000000000000000000000000008152600401610cbb906151d3565b60405180910390fd5b81600e6000858152602001908152602001600020600c0181905550806012600085815260200190815260200160002060006009600a811115610d0957610d086150ec565b5b600a811115610d1b57610d1a6150ec565b5b81526020019081526020016000206000828254610d3891906151f3565b92505081905550505050565b600360008373ffffffffffffffffffffffffffffffffffffffff1673ffffffffffffffffffffffffffffffffffffffff16815260200190815260200160002081908060018154018082558091505060019003906000526020600020016000909190919091509081610db59190615433565b505050565b610dc333611f9b565b610e02576040517f08c379a0000000000000000000000000000000000000000000000000000000008152600401610df9906150cc565b60405180910390fd5b806012600084815260200190815260200160002060006007600a811115610e2c57610e2b6150ec565b5b600a811115610e3e57610e3d6150ec565b5b8152602001908152602001600020541015610e8e576040517f08c379a0000000000000000000000000000000000000000000000000000000008152600401610e8590615551565b60405180910390fd5b3373ffffffffffffffffffffffffffffffffffffffff16600e6000848152602001908152602001600020600e0160009054906101000a900473ffffffffffffffffffffffffffffffffffffffff1673ffffffffffffffffffffffffffffffffffffffff1614610f32576040517f08c379a0000000000000000000000000000000000000000000000000000000008152600401610f29906151d3565b60405180910390fd5b806012600084815260200190815260200160002060006008600a811115610f5c57610f5b6150ec565b5b600a811115610f6e57610f6d6150ec565b5b81526020019081526020016000206000828254610f8b91906151f3565b92505081905550806012600084815260200190815260200160002060006005600a811115610fbc57610fbb6150ec565b5b600a811115610fce57610fcd6150ec565b5b81526020019081526020016000206000828254610feb9190614faf565b925050819055505050565b600080600090505b6000808473ffffffffffffffffffffffffffffffffffffffff1673ffffffffffffffffffffffffffffffffffffffff1681526020019081526020016000208054905081101561112b57600160008473ffffffffffffffffffffffffffffffffffffffff1673ffffffffffffffffffffffffffffffffffffffff1681526020019081526020016000206000808573ffffffffffffffffffffffffffffffffffffffff1673ffffffffffffffffffffffffffffffffffffffff16815260200190815260200160002082815481106110d6576110d5614f51565b5b906000526020600020016040516110ed91906155ff565b908152602001604051809103902060009054906101000a900460ff1615611118576001915050611131565b808061112390615012565b915050610ffe565b50600090505b919050565b8361114033610ff6565b61117f576040517f08c379a000000000000000000000000000000000000000000000000000000000815260040161117690615662565b60405180910390fd5b6111893382613997565b6111c8576040517f08c379a00000000000000000000000000000000000000000000000000000000081526004016111bf906156ce565b60405180910390fd5b6010600087815260200190815260200160002060009054906101000a900460ff1615611229576040517f08c379a00000000000000000000000000000000000000000000000000000000081526004016112209061573a565b60405180910390fd5b6000871161126c576040517f08c379a0000000000000000000000000000000000000000000000000000000008152600401611263906157a6565b60405180910390fd5b60008060006112796143b8565b878161010001819052508a8160000181815250508a81602001818152505089816080018181525050888160e0018190525086816101400181905250338160c0019073ffffffffffffffffffffffffffffffffffffffff16908173ffffffffffffffffffffffffffffffffffffffff1681525050338160a0019073ffffffffffffffffffffffffffffffffffffffff16908173ffffffffffffffffffffffffffffffffffffffff1681525050600d548a61133291906151f3565b8161012001818152505086816101400181905250858161018001818152505042816101600181815250506000816101a00190600a811115611376576113756150ec565b5b9081600a81111561138a576113896150ec565b5b8152505083816101c0019073ffffffffffffffffffffffffffffffffffffffff16908173ffffffffffffffffffffffffffffffffffffffff168152505082816101e0019073ffffffffffffffffffffffffffffffffffffffff16908173ffffffffffffffffffffffffffffffffffffffff16815250508181610200019073ffffffffffffffffffffffffffffffffffffffff16908173ffffffffffffffffffffffffffffffffffffffff168152505080600e60008c8152602001908152602001600020600082015181600001556020820151816001015560408201518160020155606082015181600301556080820151816004015560a08201518160050160006101000a81548173ffffffffffffffffffffffffffffffffffffffff021916908373ffffffffffffffffffffffffffffffffffffffff16021790555060c08201518160060160006101000a81548173ffffffffffffffffffffffffffffffffffffffff021916908373ffffffffffffffffffffffffffffffffffffffff16021790555060e08201518160070190816115229190615433565b506101008201518160080190816115399190615433565b50610120820151816009015561014082015181600a01908161155b9190615433565b5061016082015181600b015561018082015181600c01556101a082015181600d0160006101000a81548160ff0219169083600a81111561159e5761159d6150ec565b5b02179055506101c082015181600d0160016101000a81548173ffffffffffffffffffffffffffffffffffffffff021916908373ffffffffffffffffffffffffffffffffffffffff1602179055506101e082015181600e0160006101000a81548173ffffffffffffffffffffffffffffffffffffffff021916908373ffffffffffffffffffffffffffffffffffffffff16021790555061020082015181600f0160006101000a81548173ffffffffffffffffffffffffffffffffffffffff021916908373ffffffffffffffffffffffffffffffffffffffff16021790555090505060006116886144bc565b81816000018181525050818160200181815250508181604001818152505080600f60008e81526020019081526020016000206000820151816000015560208201518160010155604082015181600201559050506001601060008e815260200190815260200160002060006101000a81548160ff0219169083151502179055508c601160008e8152602001908152602001600020819055508c600d819055508c601260008e8152602001908152602001600020600080600a81111561174f5761174e6150ec565b5b600a811115611761576117606150ec565b5b8152602001908152602001600020600082825461177e91906151f3565b925050819055506000600e60008e8152602001908152602001600020600d0160006101000a81548160ff0219169083600a8111156117bf576117be6150ec565b5b02179055507f450f0ca4d112999acf0af70e42b45b5e285434a386833a43e0cc3ce5279cfd0a8c6040516117f39190614eca565b60405180910390a150505050505050505050505050565b6000600760008473ffffffffffffffffffffffffffffffffffffffff1673ffffffffffffffffffffffffffffffffffffffff1681526020019081526020016000208260405161185991906157f7565b908152602001604051809103902060009054906101000a900460ff16905092915050565b80600860003373ffffffffffffffffffffffffffffffffffffffff1673ffffffffffffffffffffffffffffffffffffffff16815260200190815260200160002090816118c99190615433565b5050565b6001600760003373ffffffffffffffffffffffffffffffffffffffff1673ffffffffffffffffffffffffffffffffffffffff1681526020019081526020016000208260405161191c91906157f7565b908152602001604051809103902060006101000a81548160ff02191690831515021790555050565b61194d33611f9b565b61198c576040517f08c379a0000000000000000000000000000000000000000000000000000000008152600401611983906150cc565b60405180910390fd5b816012600085815260200190815260200160002060006005600a8111156119b6576119b56150ec565b5b600a8111156119c8576119c76150ec565b5b8152602001908152602001600020541015611a18576040517f08c379a0000000000000000000000000000000000000000000000000000000008152600401611a0f9061585a565b60405180910390fd5b80600e6000858152602001908152602001600020600c015414611a70576040517f08c379a0000000000000000000000000000000000000000000000000000000008152600401611a67906158c6565b60405180910390fd5b60008211611ab3576040517f08c379a0000000000000000000000000000000000000000000000000000000008152600401611aaa90615932565b60405180910390fd5b33600e600085815260200190815260200160002060050160006101000a81548173ffffffffffffffffffffffffffffffffffffffff021916908373ffffffffffffffffffffffffffffffffffffffff16021790555033600e6000858152602001908152602001600020600e0160006101000a81548173ffffffffffffffffffffffffffffffffffffffff021916908373ffffffffffffffffffffffffffffffffffffffff16021790555043600f600085815260200190815260200160002060010181905550816012600085815260200190815260200160002060006006600a811115611ba257611ba16150ec565b5b600a811115611bb457611bb36150ec565b5b81526020019081526020016000206000828254611bd191906151f3565b92505081905550505050565b6060600a805480602002602001604051908101604052809291908181526020018280548015611c6157602002820191906000526020600020905b8160009054906101000a900473ffffffffffffffffffffffffffffffffffffffff1673ffffffffffffffffffffffffffffffffffffffff1681526020019060010190808311611c17575b5050505050905090565b60018060003373ffffffffffffffffffffffffffffffffffffffff1673ffffffffffffffffffffffffffffffffffffffff16815260200190815260200160002082604051611cb991906157f7565b908152602001604051809103902060006101000a81548160ff02191690831515021790555050565b6060600360008373ffffffffffffffffffffffffffffffffffffffff1673ffffffffffffffffffffffffffffffffffffffff168152602001908152602001600020805480602002602001604051908101604052809291908181526020016000905b82821015611dee578382906000526020600020018054611d6190615256565b80601f0160208091040260200160405190810160405280929190818152602001828054611d8d90615256565b8015611dda5780601f10611daf57610100808354040283529160200191611dda565b820191906000526020600020905b815481529060010190602001808311611dbd57829003601f168201915b505050505081526020019060010190611d42565b505050509050919050565b6060600260008373ffffffffffffffffffffffffffffffffffffffff1673ffffffffffffffffffffffffffffffffffffffff1681526020019081526020016000208054611e4590615256565b80601f0160208091040260200160405190810160405280929190818152602001828054611e7190615256565b8015611ebe5780601f10611e9357610100808354040283529160200191611ebe565b820191906000526020600020905b815481529060010190602001808311611ea157829003601f168201915b50505050509050919050565b6060600860008373ffffffffffffffffffffffffffffffffffffffff1673ffffffffffffffffffffffffffffffffffffffff1681526020019081526020016000208054611f1690615256565b80601f0160208091040260200160405190810160405280929190818152602001828054611f4290615256565b8015611f8f5780601f10611f6457610100808354040283529160200191611f8f565b820191906000526020600020905b815481529060010190602001808311611f7257829003601f168201915b50505050509050919050565b600080600090505b600660008473ffffffffffffffffffffffffffffffffffffffff1673ffffffffffffffffffffffffffffffffffffffff168152602001908152602001600020805490508110156120d257600760008473ffffffffffffffffffffffffffffffffffffffff1673ffffffffffffffffffffffffffffffffffffffff168152602001908152602001600020600660008573ffffffffffffffffffffffffffffffffffffffff1673ffffffffffffffffffffffffffffffffffffffff168152602001908152602001600020828154811061207d5761207c614f51565b5b9060005260206000200160405161209491906155ff565b908152602001604051809103902060009054906101000a900460ff16156120bf5760019150506120d8565b80806120ca90615012565b915050611fa3565b50600090505b919050565b600960003373ffffffffffffffffffffffffffffffffffffffff1673ffffffffffffffffffffffffffffffffffffffff16815260200190815260200160002060030160009054906101000a900460ff1661216c576040517f08c379a00000000000000000000000000000000000000000000000000000000081526004016121639061599e565b60405180910390fd5b806012600085815260200190815260200160002060006009600a811115612196576121956150ec565b5b600a8111156121a8576121a76150ec565b5b81526020019081526020016000205410156121f8576040517f08c379a00000000000000000000000000000000000000000000000000000000081526004016121ef90615a0a565b60405180910390fd5b81600e6000858152602001908152602001600020600c015414612250576040517f08c379a0000000000000000000000000000000000000000000000000000000008152600401612247906158c6565b60405180910390fd5b33600e6000858152602001908152602001600020600f0160006101000a81548173ffffffffffffffffffffffffffffffffffffffff021916908373ffffffffffffffffffffffffffffffffffffffff16021790555033600e600085815260200190815260200160002060050160006101000a81548173ffffffffffffffffffffffffffffffffffffffff021916908373ffffffffffffffffffffffffffffffffffffffff16021790555043600f60008581526020019081526020016000206002018190555080601260008581526020019081526020016000206000600a8081111561233e5761233d6150ec565b5b600a8111156123505761234f6150ec565b5b8152602001908152602001600020600082825461236d91906151f3565b92505081905550806012600085815260200190815260200160002060006009600a81111561239e5761239d6150ec565b5b600a8111156123b0576123af6150ec565b5b815260200190815260200160002060008282546123cd9190614faf565b92505081905550505050565b6123e2336130ae565b612421576040517f08c379a000000000000000000000000000000000000000000000000000000000815260040161241890615a9c565b60405180910390fd5b806012600084815260200190815260200160002060006003600a81111561244b5761244a6150ec565b5b600a81111561245d5761245c6150ec565b5b81526020019081526020016000205410156124ad576040517f08c379a00000000000000000000000000000000000000000000000000000000081526004016124a490615b2e565b60405180910390fd5b3373ffffffffffffffffffffffffffffffffffffffff16600e6000848152602001908152602001600020600d0160019054906101000a900473ffffffffffffffffffffffffffffffffffffffff1673ffffffffffffffffffffffffffffffffffffffff1614612551576040517f08c379a0000000000000000000000000000000000000000000000000000000008152600401612548906151d3565b60405180910390fd5b806012600084815260200190815260200160002060006004600a81111561257b5761257a6150ec565b5b600a81111561258d5761258c6150ec565b5b815260200190815260200160002060008282546125aa91906151f3565b92505081905550806012600084815260200190815260200160002060006001600a8111156125db576125da6150ec565b5b600a8111156125ed576125ec6150ec565b5b8152602001908152602001600020600082825461260a9190614faf565b925050819055505050565b6060600560008373ffffffffffffffffffffffffffffffffffffffff1673ffffffffffffffffffffffffffffffffffffffff168152602001908152602001600020805461266190615256565b80601f016020809104026020016040519081016040528092919081815260200182805461268d90615256565b80156126da5780601f106126af576101008083540402835291602001916126da565b820191906000526020600020905b8154815290600101906020018083116126bd57829003601f168201915b50505050509050919050565b600660008373ffffffffffffffffffffffffffffffffffffffff1673ffffffffffffffffffffffffffffffffffffffff168152602001908152602001600020819080600181540180825580915050600190039060005260206000200160009091909190915090816127579190615433565b505050565b6000600460008473ffffffffffffffffffffffffffffffffffffffff1673ffffffffffffffffffffffffffffffffffffffff168152602001908152602001600020826040516127ab91906157f7565b908152602001604051809103902060009054906101000a900460ff16905092915050565b6127d833611df9565b6127e133610ff6565b612820576040517f08c379a000000000000000000000000000000000000000000000000000000000815260040161281790615662565b60405180910390fd5b61282a3382613997565b612869576040517f08c379a0000000000000000000000000000000000000000000000000000000008152600401612860906156ce565b60405180910390fd5b6000600a81111561287d5761287c6150ec565b5b600e6000858152602001908152602001600020600d0160009054906101000a900460ff16600a8111156128b3576128b26150ec565b5b146128f3576040517f08c379a00000000000000000000000000000000000000000000000000000000081526004016128ea90615b9a565b60405180910390fd5b3373ffffffffffffffffffffffffffffffffffffffff16600e600085815260200190815260200160002060050160009054906101000a900473ffffffffffffffffffffffffffffffffffffffff1673ffffffffffffffffffffffffffffffffffffffff1614612997576040517f08c379a000000000000000000000000000000000000000000000000000000000815260040161298e90615c06565b60405180910390fd5b6010600084815260200190815260200160002060009054906101000a900460ff166129f7576040517f08c379a00000000000000000000000000000000000000000000000000000000081526004016129ee90615c72565b60405180910390fd5b600d546012600085815260200190815260200160002060006001600a811115612a2357612a226150ec565b5b600a811115612a3557612a346150ec565b5b815260200190815260200160002081905550600d5460126000858152602001908152602001600020600080600a811115612a7257612a716150ec565b5b600a811115612a8457612a836150ec565b5b81526020019081526020016000206000828254612aa19190614faf565b9250508190555081600e6000858152602001908152602001600020600c0181905550505050565b600960008573ffffffffffffffffffffffffffffffffffffffff1673ffffffffffffffffffffffffffffffffffffffff16815260200190815260200160002060030160009054906101000a900460ff1615612b58576040517f08c379a0000000000000000000000000000000000000000000000000000000008152600401612b4f90615cde565b60405180910390fd5b604051806080016040528084815260200183815260200182815260200160011515815250600960008673ffffffffffffffffffffffffffffffffffffffff1673ffffffffffffffffffffffffffffffffffffffff1681526020019081526020016000206000820151816000019081612bd09190615433565b506020820151816001019081612be69190615433565b506040820151816002015560608201518160030160006101000a81548160ff021916908315150217905550905050600a849080600181540180825580915050600190039060005260206000200160009091909190916101000a81548173ffffffffffffffffffffffffffffffffffffffff021916908373ffffffffffffffffffffffffffffffffffffffff16021790555050505050565b612c86336130ae565b612cc5576040517f08c379a0000000000000000000000000000000000000000000000000000000008152600401612cbc90615a9c565b60405180910390fd5b806012600085815260200190815260200160002060006004600a811115612cef57612cee6150ec565b5b600a811115612d0157612d006150ec565b5b8152602001908152602001600020541015612d51576040517f08c379a0000000000000000000000000000000000000000000000000000000008152600401612d4890615d4a565b60405180910390fd5b3373ffffffffffffffffffffffffffffffffffffffff16600e6000858152602001908152602001600020600d0160019054906101000a900473ffffffffffffffffffffffffffffffffffffffff1673ffffffffffffffffffffffffffffffffffffffff1614612df5576040517f08c379a0000000000000000000000000000000000000000000000000000000008152600401612dec906151d3565b60405180910390fd5b81600e6000858152602001908152602001600020600c0181905550806012600085815260200190815260200160002060006005600a811115612e3a57612e396150ec565b5b600a811115612e4c57612e4b6150ec565b5b815260200190815260200160002081905550505050565b612e6c336130ae565b612eab576040517f08c379a0000000000000000000000000000000000000000000000000000000008152600401612ea290615a9c565b60405180910390fd5b3373ffffffffffffffffffffffffffffffffffffffff16600e6000838152602001908152602001600020600d0160019054906101000a900473ffffffffffffffffffffffffffffffffffffffff1673ffffffffffffffffffffffffffffffffffffffff1614612f4f576040517f08c379a0000000000000000000000000000000000000000000000000000000008152600401612f46906151d3565b60405180910390fd5b6012600082815260200190815260200160002060006006600a811115612f7857612f776150ec565b5b600a811115612f8a57612f896150ec565b5b8152602001908152602001600020546012600083815260200190815260200160002060006007600a811115612fc257612fc16150ec565b5b600a811115612fd457612fd36150ec565b5b81526020019081526020016000208190555050565b6000808373ffffffffffffffffffffffffffffffffffffffff1673ffffffffffffffffffffffffffffffffffffffff168152602001908152602001600020819080600181540180825580915050600190039060005260206000200160009091909190915090816130599190615433565b505050565b80600560003373ffffffffffffffffffffffffffffffffffffffff1673ffffffffffffffffffffffffffffffffffffffff16815260200190815260200160002090816130aa9190615433565b5050565b600080600090505b600360008473ffffffffffffffffffffffffffffffffffffffff1673ffffffffffffffffffffffffffffffffffffffff168152602001908152602001600020805490508110156131e557600460008473ffffffffffffffffffffffffffffffffffffffff1673ffffffffffffffffffffffffffffffffffffffff168152602001908152602001600020600360008573ffffffffffffffffffffffffffffffffffffffff1673ffffffffffffffffffffffffffffffffffffffff16815260200190815260200160002082815481106131905761318f614f51565b5b906000526020600020016040516131a791906155ff565b908152602001604051809103902060009054906101000a900460ff16156131d25760019150506131eb565b80806131dd90615012565b9150506130b6565b50600090505b919050565b80600260003373ffffffffffffffffffffffffffffffffffffffff1673ffffffffffffffffffffffffffffffffffffffff168152602001908152602001600020908161323c9190615433565b5050565b6060806000600960008573ffffffffffffffffffffffffffffffffffffffff1673ffffffffffffffffffffffffffffffffffffffff16815260200190815260200160002060030160009054906101000a900460ff166132d4576040517f08c379a00000000000000000000000000000000000000000000000000000000081526004016132cb90614f31565b60405180910390fd5b600960008573ffffffffffffffffffffffffffffffffffffffff1673ffffffffffffffffffffffffffffffffffffffff168152602001908152602001600020600001600960008673ffffffffffffffffffffffffffffffffffffffff1673ffffffffffffffffffffffffffffffffffffffff168152602001908152602001600020600101600960008773ffffffffffffffffffffffffffffffffffffffff1673ffffffffffffffffffffffffffffffffffffffff168152602001908152602001600020600201548280546133a790615256565b80601f01602080910402602001604051908101604052809291908181526020018280546133d390615256565b80156134205780601f106133f557610100808354040283529160200191613420565b820191906000526020600020905b81548152906001019060200180831161340357829003601f168201915b5050505050925081805461343390615256565b80601f016020809104026020016040519081016040528092919081815260200182805461345f90615256565b80156134ac5780601f10613481576101008083540402835291602001916134ac565b820191906000526020600020905b81548152906001019060200180831161348f57829003601f168201915b505050505091509250925092509193909250565b6001600460003373ffffffffffffffffffffffffffffffffffffffff1673ffffffffffffffffffffffffffffffffffffffff1681526020019081526020016000208260405161350f91906157f7565b908152602001604051809103902060006101000a81548160ff02191690831515021790555050565b6000606060008060606000806000600e60008a81526020019081526020016000206040518061022001604052908160008201548152602001600182015481526020016002820154815260200160038201548152602001600482015481526020016005820160009054906101000a900473ffffffffffffffffffffffffffffffffffffffff1673ffffffffffffffffffffffffffffffffffffffff1673ffffffffffffffffffffffffffffffffffffffff1681526020016006820160009054906101000a900473ffffffffffffffffffffffffffffffffffffffff1673ffffffffffffffffffffffffffffffffffffffff1673ffffffffffffffffffffffffffffffffffffffff16815260200160078201805461365290615256565b80601f016020809104026020016040519081016040528092919081815260200182805461367e90615256565b80156136cb5780601f106136a0576101008083540402835291602001916136cb565b820191906000526020600020905b8154815290600101906020018083116136ae57829003601f168201915b505050505081526020016008820180546136e490615256565b80601f016020809104026020016040519081016040528092919081815260200182805461371090615256565b801561375d5780601f106137325761010080835404028352916020019161375d565b820191906000526020600020905b81548152906001019060200180831161374057829003601f168201915b5050505050815260200160098201548152602001600a8201805461378090615256565b80601f01602080910402602001604051908101604052809291908181526020018280546137ac90615256565b80156137f95780601f106137ce576101008083540402835291602001916137f9565b820191906000526020600020905b8154815290600101906020018083116137dc57829003601f168201915b50505050508152602001600b8201548152602001600c8201548152602001600d820160009054906101000a900460ff16600a81111561383b5761383a6150ec565b5b600a81111561384d5761384c6150ec565b5b8152602001600d820160019054906101000a900473ffffffffffffffffffffffffffffffffffffffff1673ffffffffffffffffffffffffffffffffffffffff1673ffffffffffffffffffffffffffffffffffffffff168152602001600e820160009054906101000a900473ffffffffffffffffffffffffffffffffffffffff1673ffffffffffffffffffffffffffffffffffffffff1673ffffffffffffffffffffffffffffffffffffffff168152602001600f820160009054906101000a900473ffffffffffffffffffffffffffffffffffffffff1673ffffffffffffffffffffffffffffffffffffffff1673ffffffffffffffffffffffffffffffffffffffff1681525050905080608001518161014001518261018001518361016001518460e00151856101c00151866101e00151975097509750975097509750975050919395979092949650565b6000600160008473ffffffffffffffffffffffffffffffffffffffff1673ffffffffffffffffffffffffffffffffffffffff168152602001908152602001600020826040516139e691906157f7565b908152602001604051809103902060009054906101000a900460ff16905092915050565b60106020528060005260406000206000915054906101000a900460ff1681565b613a3333610ff6565b613a72576040517f08c379a0000000000000000000000000000000000000000000000000000000008152600401613a6990615ddc565b60405180910390fd5b3373ffffffffffffffffffffffffffffffffffffffff16600e600083815260200190815260200160002060060160009054906101000a900473ffffffffffffffffffffffffffffffffffffffff1673ffffffffffffffffffffffffffffffffffffffff1614613b16576040517f08c379a0000000000000000000000000000000000000000000000000000000008152600401613b0d906151d3565b60405180910390fd5b6012600082815260200190815260200160002060006002600a811115613b3f57613b3e6150ec565b5b600a811115613b5157613b506150ec565b5b8152602001908152602001600020546012600083815260200190815260200160002060006003600a811115613b8957613b886150ec565b5b600a811115613b9b57613b9a6150ec565b5b81526020019081526020016000208190555050565b60008060008060008060006012600089815260200190815260200160002060006001600a811115613be457613be36150ec565b5b600a811115613bf657613bf56150ec565b5b815260200190815260200160002054601260008a815260200190815260200160002060006002600a811115613c2e57613c2d6150ec565b5b600a811115613c4057613c3f6150ec565b5b815260200190815260200160002054601260008b815260200190815260200160002060006004600a811115613c7857613c776150ec565b5b600a811115613c8a57613c896150ec565b5b815260200190815260200160002054601260008c815260200190815260200160002060006005600a811115613cc257613cc16150ec565b5b600a811115613cd457613cd36150ec565b5b815260200190815260200160002054601260008d815260200190815260200160002060006006600a811115613d0c57613d0b6150ec565b5b600a811115613d1e57613d1d6150ec565b5b815260200190815260200160002054601260008e815260200190815260200160002060006008600a811115613d5657613d556150ec565b5b600a811115613d6857613d676150ec565b5b815260200190815260200160002054601260008f815260200190815260200160002060006009600a811115613da057613d9f6150ec565b5b600a811115613db257613db16150ec565b5b8152602001908152602001600020549650965096509650965096509650919395979092949650565b6060600660008373ffffffffffffffffffffffffffffffffffffffff1673ffffffffffffffffffffffffffffffffffffffff168152602001908152602001600020805480602002602001604051908101604052809291908181526020016000905b82821015613ee7578382906000526020600020018054613e5a90615256565b80601f0160208091040260200160405190810160405280929190818152602001828054613e8690615256565b8015613ed35780601f10613ea857610100808354040283529160200191613ed3565b820191906000526020600020905b815481529060010190602001808311613eb657829003601f168201915b505050505081526020019060010190613e3b565b505050509050919050565b6012602052816000526040600020602052806000526040600020600091509150505481565b613f20336130ae565b613f5f576040517f08c379a0000000000000000000000000000000000000000000000000000000008152600401613f5690615e48565b60405180910390fd5b613f7133613f6c33612615565b61275c565b613fb0576040517f08c379a0000000000000000000000000000000000000000000000000000000008152600401613fa790615eb4565b60405180910390fd5b6010600084815260200190815260200160002060009054906101000a900460ff16614010576040517f08c379a000000000000000000000000000000000000000000000000000000000815260040161400790615c72565b60405180910390fd5b60008111614053576040517f08c379a000000000000000000000000000000000000000000000000000000000815260040161404a90615f20565b60405180910390fd5b806012600085815260200190815260200160002060006001600a81111561407d5761407c6150ec565b5b600a81111561408f5761408e6150ec565b5b81526020019081526020016000205410156140df576040517f08c379a00000000000000000000000000000000000000000000000000000000081526004016140d690615f8c565b60405180910390fd5b81600e6000858152602001908152602001600020600c015414614137576040517f08c379a000000000000000000000000000000000000000000000000000000000815260040161412e906158c6565b60405180910390fd5b33600e600085815260200190815260200160002060050160006101000a81548173ffffffffffffffffffffffffffffffffffffffff021916908373ffffffffffffffffffffffffffffffffffffffff16021790555033600e6000858152602001908152602001600020600d0160016101000a81548173ffffffffffffffffffffffffffffffffffffffff021916908373ffffffffffffffffffffffffffffffffffffffff16021790555043600f600085815260200190815260200160002060000181905550806012600085815260200190815260200160002060006002600a811115614226576142256150ec565b5b600a811115614238576142376150ec565b5b8152602001908152602001600020600082825461425591906151f3565b92505081905550505050565b60606000808373ffffffffffffffffffffffffffffffffffffffff1673ffffffffffffffffffffffffffffffffffffffff168152602001908152602001600020805480602002602001604051908101604052809291908181526020016000905b8282101561436d5783829060005260206000200180546142e090615256565b80601f016020809104026020016040519081016040528092919081815260200182805461430c90615256565b80156143595780601f1061432e57610100808354040283529160200191614359565b820191906000526020600020905b81548152906001019060200180831161433c57829003601f168201915b5050505050815260200190600101906142c1565b505050509050919050565b50805461438490615256565b6000825580601f1061439657506143b5565b601f0160209004906000526020600020908101906143b491906144dd565b5b50565b6040518061022001604052806000815260200160008152602001600081526020016000815260200160008152602001600073ffffffffffffffffffffffffffffffffffffffff168152602001600073ffffffffffffffffffffffffffffffffffffffff1681526020016060815260200160608152602001600081526020016060815260200160008152602001600081526020016000600a81111561445f5761445e6150ec565b5b8152602001600073ffffffffffffffffffffffffffffffffffffffff168152602001600073ffffffffffffffffffffffffffffffffffffffff168152602001600073ffffffffffffffffffffffffffffffffffffffff1681525090565b60405180606001604052806000815260200160008152602001600081525090565b5b808211156144f65760008160009055506001016144de565b5090565b6000604051905090565b600080fd5b600080fd5b600073ffffffffffffffffffffffffffffffffffffffff82169050919050565b60006145398261450e565b9050919050565b6145498161452e565b811461455457600080fd5b50565b60008135905061456681614540565b92915050565b60006020828403121561458257614581614504565b5b600061459084828501614557565b91505092915050565b6000819050919050565b6145ac81614599565b81146145b757600080fd5b50565b6000813590506145c9816145a3565b92915050565b6000602082840312156145e5576145e4614504565b5b60006145f3848285016145ba565b91505092915050565b61460581614599565b82525050565b600060608201905061462060008301866145fc565b61462d60208301856145fc565b61463a60408301846145fc565b949350505050565b60008060006060848603121561465b5761465a614504565b5b6000614669868287016145ba565b935050602061467a868287016145ba565b925050604061468b868287016145ba565b9150509250925092565b600080fd5b600080fd5b6000601f19601f8301169050919050565b7f4e487b7100000000000000000000000000000000000000000000000000000000600052604160045260246000fd5b6146e88261469f565b810181811067ffffffffffffffff82111715614707576147066146b0565b5b80604052505050565b600061471a6144fa565b905061472682826146df565b919050565b600067ffffffffffffffff821115614746576147456146b0565b5b61474f8261469f565b9050602081019050919050565b82818337600083830152505050565b600061477e6147798461472b565b614710565b90508281526020810184848401111561479a5761479961469a565b5b6147a584828561475c565b509392505050565b600082601f8301126147c2576147c1614695565b5b81356147d284826020860161476b565b91505092915050565b600080604083850312156147f2576147f1614504565b5b600061480085828601614557565b925050602083013567ffffffffffffffff81111561482157614820614509565b5b61482d858286016147ad565b9150509250929050565b6000806040838503121561484e5761484d614504565b5b600061485c858286016145ba565b925050602061486d858286016145ba565b9150509250929050565b60008115159050919050565b61488c81614877565b82525050565b60006020820190506148a76000830184614883565b92915050565b60008060008060008060c087890312156148ca576148c9614504565b5b60006148d889828a016145ba565b96505060206148e989828a016145ba565b955050604087013567ffffffffffffffff81111561490a57614909614509565b5b61491689828a016147ad565b945050606087013567ffffffffffffffff81111561493757614936614509565b5b61494389828a016147ad565b935050608087013567ffffffffffffffff81111561496457614963614509565b5b61497089828a016147ad565b92505060a061498189828a016145ba565b9150509295509295509295565b6000602082840312156149a4576149a3614504565b5b600082013567ffffffffffffffff8111156149c2576149c1614509565b5b6149ce848285016147ad565b91505092915050565b600081519050919050565b600082825260208201905092915050565b6000819050602082019050919050565b614a0c8161452e565b82525050565b6000614a1e8383614a03565b60208301905092915050565b6000602082019050919050565b6000614a42826149d7565b614a4c81856149e2565b9350614a57836149f3565b8060005b83811015614a88578151614a6f8882614a12565b9750614a7a83614a2a565b925050600181019050614a5b565b5085935050505092915050565b60006020820190508181036000830152614aaf8184614a37565b905092915050565b600081519050919050565b600082825260208201905092915050565b6000819050602082019050919050565b600081519050919050565b600082825260208201905092915050565b60005b83811015614b1d578082015181840152602081019050614b02565b60008484015250505050565b6000614b3482614ae3565b614b3e8185614aee565b9350614b4e818560208601614aff565b614b578161469f565b840191505092915050565b6000614b6e8383614b29565b905092915050565b6000602082019050919050565b6000614b8e82614ab7565b614b988185614ac2565b935083602082028501614baa85614ad3565b8060005b85811015614be65784840389528151614bc78582614b62565b9450614bd283614b76565b925060208a01995050600181019050614bae565b50829750879550505050505092915050565b60006020820190508181036000830152614c128184614b83565b905092915050565b600082825260208201905092915050565b6000614c3682614ae3565b614c408185614c1a565b9350614c50818560208601614aff565b614c598161469f565b840191505092915050565b60006020820190508181036000830152614c7e8184614c2b565b905092915050565b60008060008060808587031215614ca057614c9f614504565b5b6000614cae87828801614557565b945050602085013567ffffffffffffffff811115614ccf57614cce614509565b5b614cdb878288016147ad565b935050604085013567ffffffffffffffff811115614cfc57614cfb614509565b5b614d08878288016147ad565b9250506060614d19878288016145ba565b91505092959194509250565b60006060820190508181036000830152614d3f8186614c2b565b90508181036020830152614d538185614c2b565b9050614d6260408301846145fc565b949350505050565b614d738161452e565b82525050565b600060e082019050614d8e600083018a6145fc565b8181036020830152614da08189614c2b565b9050614daf60408301886145fc565b614dbc60608301876145fc565b8181036080830152614dce8186614c2b565b9050614ddd60a0830185614d6a565b614dea60c0830184614d6a565b98975050505050505050565b600060e082019050614e0b600083018a6145fc565b614e1860208301896145fc565b614e2560408301886145fc565b614e3260608301876145fc565b614e3f60808301866145fc565b614e4c60a08301856145fc565b614e5960c08301846145fc565b98975050505050505050565b600b8110614e7257600080fd5b50565b600081359050614e8481614e65565b92915050565b60008060408385031215614ea157614ea0614504565b5b6000614eaf858286016145ba565b9250506020614ec085828601614e75565b9150509250929050565b6000602082019050614edf60008301846145fc565b92915050565b7f436f6e73756d6572206e6f742072656769737465726564000000000000000000600082015250565b6000614f1b601783614c1a565b9150614f2682614ee5565b602082019050919050565b60006020820190508181036000830152614f4a81614f0e565b9050919050565b7f4e487b7100000000000000000000000000000000000000000000000000000000600052603260045260246000fd5b7f4e487b7100000000000000000000000000000000000000000000000000000000600052601160045260246000fd5b6000614fba82614599565b9150614fc583614599565b9250828203905081811115614fdd57614fdc614f80565b5b92915050565b7f4e487b7100000000000000000000000000000000000000000000000000000000600052603160045260246000fd5b600061501d82614599565b91507fffffffffffffffffffffffffffffffffffffffffffffffffffffffffffffffff820361504f5761504e614f80565b5b600182019050919050565b7f4f6e6c7920726567697374657265642072657461696c6572732063616e20706560008201527f72666f726d207468697320616374696f6e000000000000000000000000000000602082015250565b60006150b6603183614c1a565b91506150c18261505a565b604082019050919050565b600060208201905081810360008301526150e5816150a9565b9050919050565b7f4e487b7100000000000000000000000000000000000000000000000000000000600052602160045260246000fd5b7f4974656d206e6f742072656365697665642062792072657461696c6572000000600082015250565b6000615151601d83614c1a565b915061515c8261511b565b602082019050919050565b6000602082019050818103600083015261518081615144565b9050919050565b7f596f7520646f6e2774206f776e20746869732070726f64756374000000000000600082015250565b60006151bd601a83614c1a565b91506151c882615187565b602082019050919050565b600060208201905081810360008301526151ec816151b0565b9050919050565b60006151fe82614599565b915061520983614599565b925082820190508082111561522157615220614f80565b5b92915050565b7f4e487b7100000000000000000000000000000000000000000000000000000000600052602260045260246000fd5b6000600282049050600182168061526e57607f821691505b60208210810361528157615280615227565b5b50919050565b60008190508160005260206000209050919050565b60006020601f8301049050919050565b600082821b905092915050565b6000600883026152e97fffffffffffffffffffffffffffffffffffffffffffffffffffffffffffffffff826152ac565b6152f386836152ac565b95508019841693508086168417925050509392505050565b6000819050919050565b600061533061532b61532684614599565b61530b565b614599565b9050919050565b6000819050919050565b61534a83615315565b61535e61535682615337565b8484546152b9565b825550505050565b600090565b615373615366565b61537e818484615341565b505050565b5b818110156153a25761539760008261536b565b600181019050615384565b5050565b601f8211156153e7576153b881615287565b6153c18461529c565b810160208510156153d0578190505b6153e46153dc8561529c565b830182615383565b50505b505050565b600082821c905092915050565b600061540a600019846008026153ec565b1980831691505092915050565b600061542383836153f9565b9150826002028217905092915050565b61543c82614ae3565b67ffffffffffffffff811115615455576154546146b0565b5b61545f8254615256565b61546a8282856153a6565b600060209050601f83116001811461549d576000841561548b578287015190505b6154958582615417565b8655506154fd565b601f1984166154ab86615287565b60005b828110156154d3578489015182556001820191506020850194506020810190506154ae565b868310156154f057848901516154ec601f8916826153f9565b8355505b6001600288020188555050505b505050505050565b7f4974656d206e6f742073686970706564206279206469737472696275746f7200600082015250565b600061553b601f83614c1a565b915061554682615505565b602082019050919050565b6000602082019050818103600083015261556a8161552e565b9050919050565b600081905092915050565b6000815461558981615256565b6155938186615571565b945060018216600081146155ae57600181146155c3576155f6565b60ff19831686528115158202860193506155f6565b6155cc85615287565b60005b838110156155ee578154818901526001820191506020810190506155cf565b838801955050505b50505092915050565b600061560b828461557c565b915081905092915050565b7f4d616e756661637475726572206e6f7420726567697374657265640000000000600082015250565b600061564c601b83614c1a565b915061565782615616565b602082019050919050565b6000602082019050818103600083015261567b8161563f565b9050919050565b7f4d616e756661637475726572206e616d65206e6f742072656769737465726564600082015250565b60006156b8602083614c1a565b91506156c382615682565b602082019050919050565b600060208201905081810360008301526156e7816156ab565b9050919050565b7f50726f6475637420636f646520616c7265616479206578697374730000000000600082015250565b6000615724601b83614c1a565b915061572f826156ee565b602082019050919050565b6000602082019050818103600083015261575381615717565b9050919050565b7f53746f636b20756e697473206e6f7420617661696c61626c6500000000000000600082015250565b6000615790601983614c1a565b915061579b8261575a565b602082019050919050565b600060208201905081810360008301526157bf81615783565b9050919050565b60006157d182614ae3565b6157db8185615571565b93506157eb818560208601614aff565b80840191505092915050565b600061580382846157c6565b915081905092915050565b7f4974656d206973206e6f74206f6e2073616c6500000000000000000000000000600082015250565b6000615844601383614c1a565b915061584f8261580e565b602082019050919050565b6000602082019050818103600083015261587381615837565b9050919050565b7f496e636f727265637420707269636520666f7220746865206974656d00000000600082015250565b60006158b0601c83614c1a565b91506158bb8261587a565b602082019050919050565b600060208201905081810360008301526158df816158a3565b9050919050565b7f496e76616c6964207175616e7469747900000000000000000000000000000000600082015250565b600061591c601083614c1a565b9150615927826158e6565b602082019050919050565b6000602082019050818103600083015261594b8161590f565b9050919050565b7f596f75277265206e6f742061207265676973746572656420636f6e73756d6572600082015250565b6000615988602083614c1a565b915061599382615952565b602082019050919050565b600060208201905081810360008301526159b78161597b565b9050919050565b7f4974656d206e6f7420666f722073616c65000000000000000000000000000000600082015250565b60006159f4601183614c1a565b91506159ff826159be565b602082019050919050565b60006020820190508181036000830152615a23816159e7565b9050919050565b7f4f6e6c792072656769737465726564206469737472696275746f72732063616e60008201527f20706572666f726d207468697320616374696f6e000000000000000000000000602082015250565b6000615a86603483614c1a565b9150615a9182615a2a565b604082019050919050565b60006020820190508181036000830152615ab581615a79565b9050919050565b7f5265636569766564207175616e7469747920646f6573206e6f74206d6174636860008201527f2074686520736869707065642073746f636b0000000000000000000000000000602082015250565b6000615b18603283614c1a565b9150615b2382615abc565b604082019050919050565b60006020820190508181036000830152615b4781615b0b565b9050919050565b7f4974656d206e6f742070726f6475636564207965740000000000000000000000600082015250565b6000615b84601583614c1a565b9150615b8f82615b4e565b602082019050919050565b60006020820190508181036000830152615bb381615b77565b9050919050565b7f4e6f7420746865206974656d206f776e65720000000000000000000000000000600082015250565b6000615bf0601283614c1a565b9150615bfb82615bba565b602082019050919050565b60006020820190508181036000830152615c1f81615be3565b9050919050565b7f50726f6475637420646f6573206e6f7420657869737400000000000000000000600082015250565b6000615c5c601683614c1a565b9150615c6782615c26565b602082019050919050565b60006020820190508181036000830152615c8b81615c4f565b9050919050565b7f436f6e73756d657220616c726561647920726567697374657265640000000000600082015250565b6000615cc8601b83614c1a565b9150615cd382615c92565b602082019050919050565b60006020820190508181036000830152615cf781615cbb565b9050919050565b7f4974656d206973206e6f7420617661696c61626c650000000000000000000000600082015250565b6000615d34601583614c1a565b9150615d3f82615cfe565b602082019050919050565b60006020820190508181036000830152615d6381615d27565b9050919050565b7f4f6e6c792072656769737465726564206d616e7566616374757265727320636160008201527f6e20706572666f726d207468697320616374696f6e0000000000000000000000602082015250565b6000615dc6603583614c1a565b9150615dd182615d6a565b604082019050919050565b60006020820190508181036000830152615df581615db9565b9050919050565b7f4e6f7420612072656769737465726564206469737472696275746f7200000000600082015250565b6000615e32601c83614c1a565b9150615e3d82615dfc565b602082019050919050565b60006020820190508181036000830152615e6181615e25565b9050919050565b7f4469737472696275746f72206e616d65206e6f74207265676973746572656400600082015250565b6000615e9e601f83614c1a565b9150615ea982615e68565b602082019050919050565b60006020820190508181036000830152615ecd81615e91565b9050919050565b7f696e736572742076616c6964207175616e746974790000000000000000000000600082015250565b6000615f0a601583614c1a565b9150615f1582615ed4565b602082019050919050565b60006020820190508181036000830152615f3981615efd565b9050919050565b7f496e73756666696365696e742073746f636b0000000000000000000000000000600082015250565b6000615f76601283614c1a565b9150615f8182615f40565b602082019050919050565b60006020820190508181036000830152615fa581615f69565b905091905056fea26469706673582212206b5bad6c92d62d5ab352e8d94c497d2649d73d37d05c746fdb45ed174502974264736f6c63430008110033",
  "linkReferences": {},
  "deployedLinkReferences": {}
}